:1000000070C09EC289C088C087C086C085C084C0B9
:1000100083C050C881C080C07FC07EC07DC07CC00E
:100020007BC07AC079C013C51CC55EC5C7C7C6C72B
:10003000F4C5C4C7C3C7C2C724C6C0C7BFC7BEC7ED
:10004000BDC7BCC78FC59FC5ADC5FFC4FCC41CC61A
:1000500016C7D2C5ACC5D0C5AAC5A9C5A8C56EC7A7
:10006000040309040C03410074006D0065006C007A
:100070001803410056005200490053005000200070
:100080006D006B00490049001C0355004C004C00FA
:10009000490048004F004D0045002E004400450037
:1000A0003000310012011001FF000008EB030421B1
:1000B0000200010203010A4156524953505F4D4B61
:1000C000320009022000010100802D090400000215
:1000D000FF0000000705820208000A070502020867
:1000E000000A11241FBECFE5D4E0DEBFCDBF10E073
:1000F000A0E6B0E0EAE2F5E102C005900D92A0377B
:10010000B107D9F712E0A0E7B0E001C01D92A93015
:10011000B107E1F751D007CA73CF10926500109272
:100120006100813021F48FEF809365000895833062
:1001300019F482E38093610008958130E1F4909195
:100140006F00E199FECF20E030E03FBB2EBBE09A8C
:100150008DB3981751F0E199FECF3FBB2EBB9DBBED
:100160000FB6F894E29AE19A0FBE83E080936100A3
:1001700010926500089580917200109265001092AF
:100180006100813021F48FEF809365000895833002
:1001900019F482E38093610008958AE091E09093DE
:1001A000860080938500109269000895DFD8089535
:1001B000DDD81BD3B5D70895AA9A909AE199FECFBE
:1001C00080E090E09FBB8EBBE09A8DB380936F0080
:1001D0008150873018F082E080936F00D2D38FEF88
:1001E0008093610022D88AEF7FD78AEF7DD78AEF8C
:1001F0007BD70DD98DE890E09093840080938300A5
:100200008DE990E090938A008093890010926100BC
:10021000CFDFFECF1F93182F8AE080936A0082E021
:1002200080936900909104029230A1F58091700052
:10023000882321F4123661F581E00CC0813029F465
:100240001F3631F59093700025C0823031F41F368F
:10025000F9F483E0809370001DC0833021F41437DB
:10026000B9F484E0F7CF843021F41D3089F485E0BF
:10027000F1CF853069F41D3059F4F89428E088E115
:1002800090E00FB6F894A89581BD0FBE21BDFFCFB9
:1002900010927000812FA3D680910402823019F44D
:1002A0005D9BFECF1CB91F91089585B7826085BF05
:1002B0008BB780648BBF8BE480939B008AE580932F
:1002C0009A0008951F93CF93DF936091AB00635022
:1002D00067FDA0C08091A800CCE0D0E0C81BD10988
:1002E000C155DF4F8091A700803118F4CE01A2D80C
:1002F0008BC08D3209F088C0683009F085C083EC6E
:1003000080938F008AE580936D0010927100888140
:10031000807621F0CE0103D8282F6DC09A811092EB
:1003200098008981882321F41092990022E05DC011
:10033000853019F49093AC0057C0863009F040C066
:100340008B81813041F484EA90E09093AA008093FD
:10035000A90022E131C0823021F4CE01FFD7282F3D
:100360002BC0833041F5992341F480E690E09093CF
:10037000AA008093A90024E01FC0913041F484E6D4
:1003800090E09093AA008093A9002CE015C09230D1
:1003900041F480E790E09093AA008093A90028E1BF
:1003A0000BC0933041F488E890E09093AA008093CA
:1003B000A9002CE101C020E080E4809371001BC003
:1003C000883021F421E08EEA90E011C0893019F4E0
:1003D0009093AE0009C08A3011F421E006C08B3042
:1003E00019F48BE480939B0020E088E990E09093DF
:1003F000AA008093A9008F81882321F48E8182171F
:1004000008F4282F20936E008091AB00181614F486
:100410001092AB0080916D0084FF49C080916E0006
:100420008F3F09F444C0182F893008F018E0811B71
:1004300080936E0080918F0098E8892780938F00C9
:10044000112341F12091A9003091AA0080917100FF
:1004500086FF0DC0A0E9B0E080E090E0F901E80F70
:10046000F91FE491ED9301961817C1F708C0912F79
:10047000D901E0E9F0E08D9181939150E1F71150BD
:10048000812F90E01F5F0196820F931F9093AA0027
:100490008093A90080E990E0612F4ED0612F6C5FBE
:1004A0006C3019F08FEF80936E0060936D0094E1D3
:1004B00086B3837031F49150D9F71092AC0010924A
:1004C000A600DF91CF911F9108951F93DC01162F95
:1004D00080919A0084FF07C080919B0098E889274B
:1004E00080939B0003C08AE580939A00912FECE9EA
:1004F000F0E08D91819391501916DCF38CE990E036
:10050000612F1AD01C5F10939A001F910895A82F95
:10051000B92F80E090E041E050EA60956F5F58F4B9
:100520002D9138EF82279795879510F0842795278E
:100530003F5FC8F3F3CF0895EADF8D939D9308954D
:10054000CF93CFB7CF93C395B09BE9F7B09B09C0CA
:10055000B09B07C0B09B05C0B09B03C0B09B01C05F
:10056000A6C0DF93C091A800DD27C155DF4FB09B27
:1005700002C0DF91EBCF2F930F931F9306B32FEFA2
:1005800000FB20F94F933F9316B34FEF012700FB79
:1005900021F93BE031C04E7F012F16B3216028C006
:1005A000102F4D7F2260000006B329C04B7F2460CE
:1005B000012F000016B32BC016B3477F28602AC056
:1005C0004F7E06B320612CC04F7D16B320622FC032
:1005D0004F7B06B3206432C0422706B349934FEFE6
:1005E0000000102710FB20F916B31370C9F1297F02
:1005F00091F2012700FB21F906B3237F89F23150E4
:1006000058F1102710FB22F916B3277E79F2012743
:1006100000FB23F92F7C81F206B3102710FB24F98D
:100620002F7971F200C016B3012700FB25F92F7353
:1006300059F200C006B3102710FB26F9223040F211
:1006400000C016B3012700FB27F9243028F64F77A6
:10065000206816B30000F9CF10E41ABF00271CC0B1
:100660003B503195C31BD04010E41ABF0881033CB6
:1006700011F10B3401F12091A6001981110F121311
:10068000EDCF4A81441F093659F10D3211F0013E78
:1006900029F74F7009F0042F0093AD003F914F915F
:1006A0001F910F912F91DF91CAB7C6FD4CCFCF910B
:1006B000CFBFCF9118952091AD00222379F31091EF
:1006C000AB00112369F534306AF13093AB0020930D
:1006D000A7001091A8003BE0311B3093A80022C076
:1006E0000091AB000130E4F40AE54F7049F4309119
:1006F0006D0034FD19C000936D00CFE8D0E018C044
:1007000030919A0034FD10C000939A00CBE9D0E0FC
:100710000FC02795A8F45150A9F4220F0000F9CF7B
:100720004AE503C042ED01C0432FC4E1D0E032E00E
:1007300017B31360C09A17BB08B320E413E05F93AC
:10074000012756E008BB279520F4515021F4220FD1
:10075000F9CF012756E000003B5A08BBD0F227959D
:1007600028F4515029F4220F0000F9CF012756E058
:10077000279508BB20F4515021F4220FF9CF01270F
:1007800056E02991332308BB21F60C7F1091AC0071
:10079000110FC651D04008BB11F01093A60010E411
:1007A0001ABF016017B31C7F402F4C7F5F9100C0C0
:1007B00000C008BB17BB48BB71CFA99883E886B9B6
:1007C00081E087B987B1806C87B9369A3699FECFB8
:1007D00084B195B1369A3699FECF84B195B106961B
:1007E0006CE070E08CD6862F08951F93E6DF8C3185
:1007F00010F011E009C0E1DF853128F0DEDF8B3138
:1008000010F413E001C012E080917200181751F04B
:10081000E0918300F0918400309711F0812F0995C9
:10082000109372001F910895C59A82ED90E0FC012B
:100830003197F1F7C5980197F1F70895843091F059
:10084000853028F4823051F08330D1F409C08630ED
:1008500079F0863048F0873099F40FC083E505C001
:1008600082E503C082E505C081E58DB91EB8089513
:1008700081E58DB981E08EB9089580E58DB91EB806
:10088000089587B3837D87BB88B3837D88BB1DB8FC
:100890000895282F90916F009130C9F480E090E086
:1008A00042ED50E027FF02C0C39A01C0C398880FF1
:1008B000B4998F5FC59AFA013197F1F7C598FA019B
:1008C0003197F1F79F5F983051F0220FEBCF9923CA
:1008D00011F481E008958FB9779BFECF8FB1089511
:1008E0000F931F93CF93DF9300E8C2EDD0E019C0C0
:1008F0008CEACFDF83E5CDDF80E0CBDF182F80E00F
:10090000C8DF133511F480E00FC01DB8C59ACE01C1
:100910000197F1F7C598CE010197F1F780916F002B
:100920008DDF015028F781E0DF91CF911F910F916A
:1009300008958CEAAEDF80E8ACDF80E0AADF80E0DB
:10094000A8DF089580EFA5DF80E0A3DF80E0A1DFCE
:1009500080E09FDF8170089587B38C6287BBC59A62
:1009600085E0C2D3C298C5988EEF91E0FC01319723
:10097000F1F7C29A0197F1F7C29880916F005EDF9C
:10098000089582E080930402E199FECF81E090E037
:100990009FBB8EBBE09A8DB38093F301E199FECFAC
:1009A00082E090E09FBB8EBBE09A8DB38093F40110
:1009B0008091F3018B3030F082E08093F3018AE084
:1009C0008093F40181E08093F20108952091F30176
:1009D000E199FECF81E090E09FBB8EBB2DBB0FB6AF
:1009E000F894E29AE19A0FBE2091F401E199FECFCA
:1009F00082E090E09FBB8EBB2DBB0FB6F894E29ACD
:100A0000E19A0FBE089508957F928F929F92AF92C0
:100A1000BF92CF92DF92EF92FF920F931F93CF93EB
:100A2000DF9382E090E09093030280930202809132
:100A3000C90090E0FC013197ED31F10508F0BEC22C
:100A4000ED5EFF4F0994DD241CC200E01EC18BEC5B
:100A500090E066EB70E043D51092CA008DE090E024
:100A60007CC08091CA009091CB00E82FF0E0EF713C
:100A7000F070EE51FE4F9083883909F002C1943036
:100A8000D1F0953028F49230D9F09330B8F41AC0F0
:100A90009E3359F09F3328F4953059F09630A9F4DD
:100AA00006C0953911F0933A81F481E00CC082E0E0
:100AB0000AC083E008C090936F0007C085E003C0C0
:100AC00086E001C087E080936F0020916F00E1997C
:100AD000FECF80E090E09FBB8EBB2DBB0FB6F8949D
:100AE000E29AE19A0FBECDC08091CA00883911F513
:100AF00080916F008430D9F0853038F4823071F005
:100B0000833070F48130D9F407C0863069F08630C4
:100B100048F08730A1F40AC08EEF09C086E007C014
:100B200085E005C083E003C082E001C081E08093DE
:100B3000FA0105C0843919F440DE8093F601E09192
:100B4000CA00F0E0EF71F070EE51FE4F80818093AB
:100B5000CB001092CA0083E090E090930302809350
:100B600002022FC2E0918900F0918A00309711F0C3
:100B700081E0099581E080930402EEDEB1DE8823F6
:100B800009F01CC27EC07DDE1092CA00E09189008F
:100B9000F0918A00309711F082E0099582E080930D
:100BA00004020FC2C6DE8091CA009ED26AC00BEC5E
:100BB00010E0C0E0D0E0FF248091CA0090E00197EF
:100BC000C817D90729F4F801808163DEF82E03C025
:100BD000F80180815EDE21960F5F1F4FC430D10582
:100BE00059F71092CA00F092CB001092CC00D0932B
:100BF0000302C0930202E5C18091CA004ADE8091DF
:100C0000CB0047DE8091CC0044DE8091CD0041DEF8
:100C10001092CA001092CB009ECF8091CA0090E043
:100C2000A0E0B0E0BA2FA92F982F88272091CB0001
:100C300030E040E050E0822B932BA42BB52BBA2F51
:100C4000A92F982F88272091CC0030E040E050E079
:100C5000822B932BA42BB52BBA2FA92F982F882743
:100C60002091CD0030E040E050E0822B932BA42B6C
:100C7000B52B8093C5009093C600A093C700B09396
:100C8000C8001092CA009DC101E07090C500A090FC
:100C9000C6009091CA0080E02091CB00C22EDD24D6
:100CA000C82AD92A7AECE72E70E0F72EC0E0D0E00F
:100CB000BB244601089481089108DAC0C3FD02DB19
:100CC000002351F49E012170822F880F880F880F16
:100CD0009091CE00892B02C08091CE00DADD809108
:100CE000C5009091C600A091C700B091C800892F9F
:100CF0009A2FAB2FBB27CDDD8091C500CADDF70150
:100D00008185C7DD002311F4C0FF13C08091C500A9
:100D10009091C600A091C700B091C8000196A11D96
:100D2000B11D8093C5009093C600A093C700B093F7
:100D3000C8008091CC0080FD03C034E048E011C0C1
:100D4000C815D90508F490C087FF8EC08091CF00E8
:100D5000A0DD8A2D9EDD872D9CDD80E09ADD30E2CE
:100D600040E4002311F4C0FF13C08091C5009091AE
:100D7000C600A091C700B091C8000197A109B109B0
:100D80008093C5009093C600A093C700B093C8009D
:100D90002091CC009091D100F7018185981709F43A
:100DA00020E03223A1F18091CD00AED19091D1000D
:100DB0009E012170122F110F110F110F23C000235C
:100DC00021F48091D000812B02C08091D00061DDA0
:100DD0008091C5009091C600A091C700B091C80055
:100DE000892F9A2FAB2FBB2754DD8091C50051DD91
:100DF00080E04FDD982F80910502882319F440E8A8
:100E0000B42E1BC08091D1009817C9F216C02423BC
:100E100051F08091CD0078D102C08091050292DD21
:100E20008823D9F709C08091CD006ED101C04ADA7C
:100E3000809105028823D9F7BB24002311F4C0FF59
:100E400013C08091C5009091C600A091C700B091D9
:100E5000C8000196A11DB11D8093C5009093C600E6
:100E6000A093C700B093C80021960894E11CF11C20
:100E7000CC15DD0508F422CFB092CA00A2C0DD2453
:100E8000D3949091CA0080E02091CB008C01020F96
:100E9000111DC090CC003BECE32E30E0F32EC0E0FF
:100EA000D0E03CC0DD2041F4FE01E1708E2F880FC0
:100EB000880F880F8C2901C08C2DEBDC8091C50038
:100EC0009091C600A091C700B091C800892F9A2FB9
:100ED000AB2FBB27DEDC8091C500DBDC80E0D9DCFA
:100EE000F7018083DD2011F4C0FF13C08091C5009D
:100EF0009091C600A091C700B091C8000196A11DB5
:100F0000B11D8093C5009093C600A093C700B09315
:100F1000C800D8D921960894E11CF11CC017D1074C
:100F200008F21092CA00F801E753FF4F12820D5FDA
:100F30001F4F109303020093020243C09091CA0016
:100F4000E090CB008091CC000AEC10E0C0E0D0E053
:100F5000FF24F394C92EDD24A82EBB2413C0CA1588
:100F6000DB0550F0F801838194DCEF2DF0E0E753CE
:100F7000FF4F8183F39403C0F80183818ADC2196BB
:100F80000F5F1F4FCC15DD0550F309C0888181DC50
:100F9000EF2DF0E0E753FF4F8183F39403C0E601A8
:100FA000C353DF4FFE1490F31092CA008E2D90E0D1
:100FB000FC01E753FF4F12820396CFCD80EC809364
:100FC000CA00DF91CF911F910F91FF90EF90DF90BA
:100FD000CF90BF90AF909F908F907F900895209179
:100FE0007300309174002115310561F48B3109F0E3
:100FF00060C08093C90081E090E09093740080937A
:101000007300089591E02931390708F04EC0F901C5
:10101000E753FF4F8083F9013196F0937400E0931A
:101020007300E430F10581F49091CB0080E02091D1
:10103000CC00820F911D06969093760080937500E8
:101040008A519140B0F105C0E530F10539F48E3098
:1010500081F110927400109273000895E530F1054B
:1010600040F18091750090917600E817F90709F535
:1010700090E0A9ECB0E003C08D91982731973097AC
:10108000D9F71092740010927300992311F4BCDC0C
:10109000089580EB8093C9008093CA0083E090E0BC
:1010A00090930302809302020895109274001092AC
:1010B000730008951F920F920FB60F9211248F9311
:1010C000F89482E382BF80910502815080930502EB
:1010D00080910502882309F413BE78948F910F90B4
:1010E0000FBE0F901F90189578948093050282E3AD
:1010F00082BF83B7836083BF89B7816089BF8091D6
:1011000005028823E1F7089578948093050282E32D
:1011100082BF83B7836083BF89B7816089BF089529
:1011200080910602883720F48F5F8093060208952D
:101130001092060270916C0060E041E050E0AFEF69
:1011400070C0E62FF0E0EE0FFF1FEE0FFF1FE05A1A
:10115000FF4F9181992309F459C09F3F49F425B36A
:10116000CA01008002C0880F991F0A94E2F73DC0AF
:101170009230A1F425B3CA01008002C0880F991FE4
:101180000A94E2F7982F282B25BB82818823D9F572
:1011900085B39095982395BBA18342C09130A1F46B
:1011A00085B39A01008002C0220F331F0A94E2F730
:1011B000922F9095982395BB8281882321F585B342
:1011C000282B25BB11822CC082818823E1F49283D5
:1011D00083819081882369F4A38325B3FA0102C037
:1011E000EE0FFF1F9A95E2F7CF018095822385BB12
:1011F00017C0138225B3FA0102C0EE0FFF1F9A95A4
:10120000E2F7CF010BC0815082830AC025B3CA0127
:10121000008002C0880F991F0A94E2F7282B25BB93
:101220006F5F671708F48DCF089560916C0090E0B0
:1012300041E050E013C084B3E92FF0E0EE0FFF1F50
:10124000EE0FFF1FE05AFF4F9A01008002C0220FED
:10125000331F0A94E2F7822B84BB9F5F961758F3E3
:1012600088E7809306025CDF0895FC0110821182FA
:10127000138212820895FC01778366835583448329
:101280000895FC0182819381892B19F42FEF3FEFA0
:101290001BC04081842F90E0019624813581821704
:1012A000930711F480E002C0842F8F5F80838281D6
:1012B00093810197938382830680F781E02DE40F69
:1012C000F11D8081282F30E0C9010895DB011196BE
:1012D0009C9111971696ED91FC911797E90FF11DCE
:1012E000808311964C911197842F90E0019614966B
:1012F0002D913C9115978217930711F480E002C05D
:10130000842F8F5F11968C93119712968D919C91DB
:101310001397019613969C938E9312970895FC0150
:1013200081818E3F29F489E08093790021E00EC00D
:101330008E3159F4F89428E088E190E00FB6F894E3
:10134000A89581BD0FBE21BDFFCF20E089E790E0C9
:101350009093AA008093A900822F089582EC90E0D8
:101360009093AA008093A90080E20895ABD7809162
:10137000750090917600892B29F046DB109276005B
:10138000109275008091AC00882319F08FEF809344
:101390006900209102023091030221153105B1F15B
:1013A00080919A0084FF32C040917700509178007C
:1013B000C901841B950B909308028093070209973B
:1013C00030F088E090E09093080280930702CA0111
:1013D00087539F4F6091070278D820910702309180
:1013E00008028091770090917800820F931F90936C
:1013F0007800809377002830310540F41092030282
:101400001092020210927800109277000895B9DAD3
:10141000B89A20E040E757E103C0CA010197F1F70D
:101420002150D9F7B89880E090E060E04ED83DD7E1
:1014300078940895FF920F931F93482F792FF62EDB
:101440008AE080936A0082E080936900062F10E0B2
:10145000209173003091740027533F4FC901642FCE
:101460004F2D50E043D04091730050917400400FD5
:10147000511F509374004093730087E08F1518F547
:101480006091C900633111F0653191F48091CA0017
:1014900090E081709070982F88272091CB0030E0E9
:1014A000822B932B9A012A5030408217930759F0D0
:1014B0006D3189F48091CA0090E09A012450304047
:1014C0008217930741F45093760040937500109271
:1014D0007400109273001F910F91FF900895FB010B
:1014E000DC0105900D920020E1F70895FB01DC017D
:1014F00002C001900D9241505040D8F70895AA1BA8
:10150000BB1B51E107C0AA1FBB1FA617B70710F0EE
:10151000A61BB70B881F991F5A95A9F78095909520
:0A152000BC01CD010895F894FFCF3F
:10152A00040000000300000005000000035AFF0148
:00000001FF
