:1000000044C03CC25DC05CC05BC05AC059C058C04F
:1000100057C061C355C054C053C052C051C050C036
:100020004FC04EC04DC00403090420037700770081
:1000300077002E0075006C006C00690068006F008E
:100040006D0065002E006400650018035500530024
:100050004200200041005600520020004C00610088
:10006000620012011001FF000008030431C60501FF
:100070000102000109021200010100802D090400A3
:100080000000000000000100FF8E11241FBECFE51C
:10009000D4E0DEBFCDBF10E0A0E6B0E0E6E9FBE0D3
:1000A00002C005900D92A437B107D9F710E0A4E77C
:1000B000B0E001C01D92A93AB107E1F742D369C58A
:1000C0009FCF80917D00883720F48F5F80937D00E3
:1000D000089510927D0070916E0060E041E050E064
:1000E000AFEF70C0E62FF0E0EE0FFF1FEE0FFF1F27
:1000F000EE59FF4F9181992309F459C09F3F49F46C
:1001000025B3CA01008002C0880F991F0A94E2F744
:100110003DC09230A1F425B3CA01008002C0880F0F
:10012000991F0A94E2F7982F282B25BB82818823F8
:10013000D9F585B39095982395BBA18342C09130A2
:10014000A1F485B39A01008002C0220F331F0A94E4
:10015000E2F7922F9095982395BB8281882321F511
:1001600085B3282B25BB11822CC082818823E1F422
:10017000928383819081882369F4A38325B3FA0154
:1001800002C0EE0FFF1F9A95E2F7CF018095822300
:1001900085BB17C0138225B3FA0102C0EE0FFF1F03
:1001A0009A95E2F7CF010BC0815082830AC025B334
:1001B000CA01008002C0880F991F0A94E2F7282B19
:1001C00025BB6F5F671708F48DCF089560916E00AF
:1001D00090E041E050E013C084B3E92FF0E0EE0F6F
:1001E000FF1FEE0FFF1FEE59FF4F9A01008002C064
:1001F000220F331F0A94E2F7822B84BB9F5F96176E
:1002000058F388E780937D005CDF089585B78360AD
:1002100085BF8BB780648BBF08951F93CF93DF9307
:1002200060918E00635067FDA6C080918B00CCE08A
:10023000D0E0C81BD109CE56DF4F80918A008D32A5
:1002400009F083C0683009F090C083EC80937E0091
:100250008AE580936000109274008881807639F07E
:10026000CE0130D3282F8F3F09F45EC064C09A813D
:10027000109287008981882321F41092880022E05F
:100280004CC0853019F490938F0046C08630A9F594
:100290008B81813019F482E690E004C0823041F411
:1002A00084E790E090938D0080938C0022E121C040
:1002B0008330F1F4992341F486E290E090938D002D
:1002C00080938C0024E015C0913041F48AE290E0E4
:1002D00090938D0080938C0020E20BC0923041F40B
:1002E0008AE490E090938D0080938C0028E101C017
:1002F00020E080E4809374001EC0883021F421E067
:1003000081E990E00CC0893019F49093910004C009
:100310008A3011F421E001C020E087E890E090935A
:100320008D0080938C0007C0888187FD2E8180E836
:100330008093740006C08F81882319F48E81821700
:1003400008F0822F8093610010C08091740087FFB5
:100350000CC0CE0121D28F3F21F48EE1809360004A
:1003600004C0882311F01092610080918E0018164D
:1003700014F410928E008091600084FF58C0809128
:1003800061008F3F09F453C0182F893008F018E03E
:10039000811B8093610080917E0098E8892780937B
:1003A0007E00112391F18091740087FF08C08FE7D0
:1003B00090E0612F41D2182F893098F526C0209106
:1003C0008C0030918D0086FF0DC0AFE7B0E080E07B
:1003D00090E0F901E80FF91FE491ED9301961817E9
:1003E000C1F708C0912FD901EFE7F0E08D9181931B
:1003F0009150E1F71150812F90E01F5F0196820F1D
:10040000931F90938D0080938C008FE790E0612F75
:1004100031D0612F6C5F6C3041F08FEF80936100C1
:1004200004C08FEF809361006EE16093600094E1FF
:1004300086B3837031F49150D9F710928F001092E7
:100440008900DF91CF911F910895A82FB92F80E0E7
:1004500090E041E050EA60956F5F58F42D9138EFDD
:1004600082279795879510F0842795273F5FC8F3DB
:10047000F3CF0895EADF8D939D930895CF93CFB77F
:10048000CF93C395B09BE9F7B09B09C0B09B07C061
:10049000B09B05C0B09B03C0B09B01C0A1C0DF935F
:1004A000C0918B00DD27CE56DF4FB09B02C0DF919D
:1004B000EBCF2F930F931F9306B32FEF00FB20F981
:1004C0004F933F9316B34FEF012700FB21F93BE019
:1004D00031C04E7F012F16B3216028C0102F4D7FF1
:1004E0002260000006B329C04B7F2460012F00006A
:1004F00016B32BC016B3477F28602AC04F7E06B3C1
:1005000020612CC04F7D16B320622FC04F7B06B3F5
:10051000206432C0422706B349934FEF00001027F2
:1005200010FB20F916B31370C9F1297F91F201274E
:1005300000FB21F906B3237F89F2315058F11027CF
:1005400010FB22F916B3277E79F2012700FB23F96D
:100550002F7C81F206B3102710FB24F92F7971F25A
:1005600000C016B3012700FB25F92F7359F200C014
:1005700006B3102710FB26F9223040F200C016B354
:10058000012700FB27F9243028F64F77206816B39F
:100590000000F9CF10E41ABF002717C03B50319577
:1005A000C31BD04010E41ABF0881033CE9F00B34B0
:1005B000D9F0209189001981110F1213EDCF09365E
:1005C00041F10D3211F0013E39F7009390003F9157
:1005D0004F911F910F912F91DF91CAB7C6FD51CF57
:1005E000CF91CFBFCF91189520919000222379F31E
:1005F00010918E00112311F5343012F130938E00DA
:1006000020938A0010918B003BE0311B30938B00CC
:1006100017C000918E0001308CF40AE53091600023
:1006200034FD10C000936000CEE7D0E00FC02795E6
:10063000A8F45150A9F4220F0000F9CF4AE503C0F5
:1006400042ED01C0432FC4E1D0E032E017B31360A4
:10065000C09A17BB08B320E413E05F93012756E06C
:1006600008BB279520F4515021F4220FF9CF012720
:1006700056E000003B5A08BBD0F2279528F45150B1
:1006800029F4220F0000F9CF012756E0279508BB77
:1006900020F4515021F4220FF9CF012756E029917F
:1006A000332308BB21F60C7F10918F00110FC65128
:1006B000D04008BB11F01093890010E41ABF01600C
:1006C00017B31C7F402F4C7F5F9100C000C008BB58
:1006D00017BB48BB7CCF1F920F920FB60F9211240D
:1006E0008F93F89482E382BF8091A8008150809319
:1006F000A8008091A800882309F413BE78948F91F4
:100700000F900FBE0F901F90189578948093A800BB
:1007100082E382BF83B7836083BF89B7816089BF6B
:100720008091A8008823E1F7089578948093A80029
:1007300082E382BF83B7836083BF89B7816089BF4B
:1007400008951F93AA9AB89A20E040E757E103C0A2
:10075000CA010197F1F72150D9F7B89857DD78947D
:100760008FEF8093630032DD8AEF90E0CEDF8AEF77
:1007700090E0CBDF8AEF90E0C8DF10926300A1DC4D
:100780007AD11FEF80918F00882311F010936B00B6
:10079000A89597DC42DDF6CFFF920F931F93CF937E
:1007A000DF93082F492F162F809175008130B9F5FE
:1007B0002091760030917700862F90E02817390736
:1007C00008F4122F802F942F9C01E901FF2410C000
:1007D00080917600909177000197909377008093B5
:1007E000760088814DD1882311F4FF24F39421965B
:1007F0009E01201B211760F380917C0081FF07C0C0
:100800008091760090917700892B09F40DD1FF201B
:1008100061F0809175008C5F8093750006C0802F19
:1008200060E070E0412F50E0ADD1812FDF91CF919A
:100830001F910F91FF9008950F931F93CF93DF9314
:10084000082F492F162F80917500813079F520915E
:10085000760030917700862F90E02817390708F44A
:10086000122F802F942F9C01E90110C080917600F7
:10087000909177000197909377008093760020E025
:10088000892B09F421E0822F35D189939E01201B09
:10089000211760F380917C0081FF0EC0809176006B
:1008A00090917700892B41F4BFD006C0802F60E083
:1008B00070E0412F50E066D1812FDF91CF911F91E1
:1008C0000F9108951F93CF93DF93EC0188E790E099
:1008D00090938D0080938C002981233009F484C08B
:1008E000243028F4213019F1223040F518C02E317F
:1008F00059F02F3120F4283008F07CC041C02E3F41
:1009000009F078C086E072C0F89428E088E190E0B1
:100910000FB6F894A89581BD0FBE21BDFFCF8A8187
:10092000809378008B818093790082E06AC066E8CA
:1009300070E044E050E01DD184E063C08A819B8177
:100940009093700080936F00892B31F481E090E0E8
:100950009093700080936F0080916F009091700071
:10096000969587959093720080937100892B09F07A
:1009700041C081E090E090937200809371003AC092
:100980008AE08093640081E0809363001C81110FF2
:100990008A8180FD1160898180FF02C036D001C04C
:1009A00053D0812F6DD0882341F482E0809375006D
:1009B000109277001092760010C081E0809375004D
:1009C0002E813F8130937700209376008981809338
:1009D0007C0081FF03C0232B09F426D08E819F81E8
:1009E000892B71F08FEF0DC0809175008093780096
:1009F00081E007C08AE080936C0082E080936B0006
:100A000080E0DF91CF911F91089580916F009091C8
:100A10007000FC013197F1F7C398FC013197F1F7B1
:100A2000C2980197F1F70895C39880916F00909153
:100A30007000FC013197F1F7C29AFC013197F1F790
:100A4000C39A0197F1F70895C39AC29A80917100F1
:100A5000909172000197F1F780916F009091700072
:100A6000FC013197F1F7C398FC013197F1F7C29877
:100A70000197F1F70895C39ABB9ABA9AC29A08955A
:100A800040916F005091700027E030E0682F70E0D7
:100A9000CB01022E02C0959587950A94E2F780FF5C
:100AA00002C0C39A01C0C398CA010197F1F7C29A64
:100AB000CA010197F1F7C298CA010197F1F72150D5
:100AC00030408FEF2F3F380719F7C39ABB98C29A6F
:100AD000CA010197F1F786B3FA013197F1F7C2988D
:100AE000FA013197F1F7BB9A8695869586958095A0
:100AF00081700895682F20916F0030917000C901B6
:100B00000197F1F7C9010197F1F7C39ABB9840E04B
:100B100050E0C9010197F1F7C29A86B3550F90E0F2
:100B20008870907073E0959587957A95E1F7582BCA
:100B3000C9010197F1F7C2984F5F483051F7C901D9
:100B40000197F1F7BB9A662311F0C39A01C0C398CD
:100B5000C9010197F1F7C29AC9010197F1F7C2984B
:100B6000C9010197F1F7C39AC9010197F1F7852FE0
:100B70000895FB01DC0102C005900D9241505040E8
:100B8000D8F70895DC0101C06D9341505040E0F763
:060B90000895F894FFCF68
:100B96005AFF040000000300000005000000030ADD
:040BA6000005000046
:00000001FF
