:1000000042C03AC25BC05AC059C058C057C056C05F
:1000100055C05FC353C052C051C050C04FC04EC046
:100020004DC04CC04BC00403090420037700770087
:1000300077002E0075006C006C00690068006F008E
:100040006D0065002E006400650018035500530024
:100050004200200041005600520020004C00610088
:10006000620012011001FF000008C016DC0500014B
:100070000102000109021200010100802D090400A3
:1000800000000000000011241FBECFE5D4E0DEBF59
:10009000CDBF10E0A0E6B0E0E2E8FAE002C00590D3
:1000A0000D92A037B107D9F711E0A0E7B0E001C089
:1000B0001D92A83BB107E1F73FD4E1C4A1CF8091E5
:1000C0007E00883720F48F5F80937E000895109221
:1000D0007E0070916E0060E041E050E0AFEF70C0D4
:1000E000E62FF0E0EE0FFF1FEE0FFF1FEE59FF4F60
:1000F0009181992309F459C09F3F49F425B3CA015E
:10010000008002C0880F991F0A94E2F73DC0923028
:10011000A1F425B3CA01008002C0880F991F0A9478
:10012000E2F7982F282B25BB82818823D9F585B348
:100130009095982395BBA18342C09130A1F485B3DB
:100140009A01008002C0220F331F0A94E2F7922F17
:100150009095982395BB8281882321F585B3282B20
:1001600025BB11822CC082818823E1F49283838194
:100170009081882369F4A38325B3FA0102C0EE0FAE
:10018000FF1F9A95E2F7CF018095822385BB17C0A8
:10019000138225B3FA0102C0EE0FFF1F9A95E2F712
:1001A000CF010BC0815082830AC025B3CA010080F1
:1001B00002C0880F991F0A94E2F7282B25BB6F5FB6
:1001C000671708F48DCF089560916E0090E041E0CC
:1001D00050E013C084B3E92FF0E0EE0FFF1FEE0FE5
:1001E000FF1FEE59FF4F9A01008002C0220F331FFC
:1001F0000A94E2F7822B84BB9F5F961758F388E737
:1002000080937E005CDF089585B7836085BF8BB7E0
:1002100080648BBF08951F93CF93DF9360918F000D
:10022000635067FDA6C080918C00CCE0D0E0C81B75
:10023000D109CD56DF4F80918B008D3209F083C0FC
:10024000683009F090C083EC80937F008AE580934A
:100250006000109270008881807639F0CE016FD2F4
:10026000282F8F3F09F45EC064C09A8110928800E5
:100270008981882321F41092890022E04CC08530C6
:1002800019F49093900046C08630A9F58B81813097
:1002900019F482E690E004C0823041F484E790E0F3
:1002A00090938E0080938D0022E121C08330F1F481
:1002B000992341F486E290E090938E0080938D0024
:1002C00024E015C0913041F48AE290E090938E00D2
:1002D00080938D0020E20BC0923041F48AE490E0DC
:1002E00090938E0080938D0028E101C020E080E48F
:1002F000809370001EC0883021F421E082E990E0F4
:100300000CC0893019F49093920004C08A3011F423
:1003100021E001C020E088E890E090938E00809377
:100320008D0007C0888187FD2E8180E88093700052
:1003300006C08F81882319F48E81821708F0822FDE
:100340008093610010C08091700087FF0CC0CE01C7
:100350003BD28F3F21F48EE18093600004C088235C
:1003600011F01092610080918F00181614F4109211
:100370008F008091600084FF58C0809161008F3FA2
:1003800009F453C0182F893008F018E0811B8093BE
:10039000610080917F0098E8892780937F00112376
:1003A00091F18091700087FF08C080E890E0612F94
:1003B000EDD1182F893098F526C020918D0030910D
:1003C0008E0086FF0DC0A0E8B0E080E090E0F9016B
:1003D000E80FF91FE491ED9301961817C1F708C0D3
:1003E000912FD901E0E8F0E08D9181939150E1F7F0
:1003F0001150812F90E01F5F0196820F931F909301
:100400008E0080938D0080E890E0612F31D0612FC5
:100410006C5F6C3041F08FEF8093610004C08FEF10
:10042000809361006EE16093600094E186B3837015
:1004300031F49150D9F71092900010928A00DF9118
:10044000CF911F910895A82FB92F80E090E041E04F
:1004500050EA60956F5F58F42D9138EF8227979599
:10046000879510F0842795273F5FC8F3F3CF089551
:10047000EADF8D939D930895CF93CFB7CF93C39524
:10048000B09BE9F7B09B09C0B09B07C0B09B05C00B
:10049000B09B03C0B09B01C0A1C0DF93C0918C0092
:1004A000DD27CD56DF4FB09B02C0DF91EBCF2F93FE
:1004B0000F931F9306B32FEF00FB20F94F933F9349
:1004C00016B34FEF012700FB21F93BE031C04E7F0F
:1004D000012F16B3216028C0102F4D7F226000002D
:1004E00006B329C04B7F2460012F000016B32BC038
:1004F00016B3477F28602AC04F7E06B320612CC008
:100500004F7D16B320622FC04F7B06B3206432C0EC
:10051000422706B349934FEF0000102710FB20F944
:1005200016B31370C9F1297F91F2012700FB21F95D
:1005300006B3237F89F2315058F1102710FB22F9BE
:1005400016B3277E79F2012700FB23F92F7C81F275
:1005500006B3102710FB24F92F7971F200C016B3EF
:10056000012700FB25F92F7359F200C006B31027AD
:1005700010FB26F9223040F200C016B3012700FB21
:1005800027F9243028F64F77206816B30000F9CFFA
:1005900010E41ABF002717C03B503195C31BD04051
:1005A00010E41ABF0881033CE9F00B34D9F0209124
:1005B0008A001981110F1213EDCF093641F10D3266
:1005C00011F0013E39F7009391003F914F911F9137
:1005D0000F912F91DF91CAB7C6FD51CFCF91CFBFF9
:1005E000CF91189520919100222379F310918F00DB
:1005F000112311F5343012F130938F0020938B00CA
:1006000010918C003BE0311B30938C0017C000919F
:100610008F0001308CF40AE53091600034FD10C089
:1006200000936000CFE7D0E00FC02795A8F45150A9
:10063000A9F4220F0000F9CF4AE503C042ED01C042
:10064000432FC4E1D0E032E017B31360C09A17BB68
:1006500008B320E413E05F93012756E008BB279519
:1006600020F4515021F4220FF9CF012756E0000069
:100670003B5A08BBD0F2279528F4515029F4220F99
:100680000000F9CF012756E0279508BB20F4515010
:1006900021F4220FF9CF012756E02991332308BB1B
:1006A00021F60C7F10919000110FC651D04008BB6D
:1006B00011F010938A0010E41ABF016017B31C7F79
:1006C000402F4C7F5F9100C000C008BB17BB48BBE8
:1006D0007CCF1F920F920FB60F9211248F93F89434
:1006E00082E382BF8091A90081508093A90080910C
:1006F000A900882309F413BE78948F910F900FBE40
:100700000F901F90189578948093A90082E382BF80
:1007100083B7836083BF89B7816089BF8091A90057
:100720008823E1F7089578948093A90082E382BF3B
:1007300083B7836083BF89B7816089BF0895FC0157
:1007400081818E3F29F483E08093740021E016C0FC
:100750008E3159F4F89428E088E190E00FB6F894CF
:10076000A89581BD0FBE21BDFFCF813021F0823021
:1007700011F020E003C0809371002FEF84E790E038
:1007800090938E0080938D00822F08959C0180911C
:100790007100813011F02FEF15C0D90120E010C099
:1007A0009091730080917200891761F0E92FF0E059
:1007B000EC54FF4F80818D932F5F9F5F9093730068
:1007C000261770F3822F0895DF92EF92FF920F9316
:1007D0001F93CF93DF938C0180917100823011F0D1
:1007E0006FEFA1C0BA9ABB9AC39888E08A95F1F7D7
:1007F000C29880917200E82FF0E0EC54FF4F91E036
:1008000090838F5FE82FF0E0EC54FF4F10828F5FF2
:100810008093720040E050E0C62FD0E0DD24D394F6
:1008200093E0E92EB8E0A8E082E0F82E59C0F80184
:10083000E40FF51F308180917200282F2F5F782FF1
:10084000705FE82FF0E037FF05C0C39AEC54FF4F0C
:10085000E08204C0C398EC54FF4FD0829B2F9A953E
:10086000F1F7C29A9B2F9A95F1F7C298E22FF0E028
:10087000EC54FF4F1082922F9F5F2E5F8E5F871781
:1008800011F0330FDECFC39AE92FF0E0EC54FF4FA5
:10089000F0829F5FBB988A2F8A95F1F7C29A26B3A0
:1008A0002870322F36953695E92FF0E0EC54FF4F43
:1008B000832F816080839F5F8A2F8A95F1F7C2988A
:1008C000E92FF0E0EC54FF4F30839F5F909372006C
:1008D000BB9A8A2F8A95F1F7222331F44F5F5F4F3D
:1008E0004C175D070CF4A3CF88E0982F9A95F1F789
:1008F000C29A982F9A95F1F7C39A8A95F1F7809149
:100900007200E82FF0E0EC54FF4F91E090838F5F8E
:10091000E82FF0E0EC54FF4F93E090838F5F8093DB
:100920007200BB98BA98862FDF91CF911F910F91DB
:10093000FF90EF90DF9008951F93AA9AB89A20E055
:1009400040E757E103C0CA010197F1F72150D9F7F9
:10095000B8985ADC78948FEF8093630035DC8AEF87
:10096000D2DE8AEFD0DE8AEFCEDE10926300BA9834
:10097000BB98BC98BD98C29AC39AC49AC59A1FEFF7
:10098000309172002091B30096B396959695921788
:1009900039F0E32FF0E0EC54FF4F90833F5F292FB5
:1009A0008091A900882381F7309372002093B300CF
:1009B0009093AE0080919000882311F010936B000B
:1009C00082E3B1DE28DC7BDBDBCFFC01108211820D
:1009D000138212820895FC017783668355834483D2
:1009E0000895FC0182819381892B19F42FEF3FEF49
:1009F0001BC04081842F90E00196248135818217AD
:100A0000930711F480E002C0842F8F5F808382817E
:100A100093810197938382830680F781E02DE40F11
:100A2000F11D8081282F30E0C9010895DB01119666
:100A30009C9111971696ED91FC911797E90FF11D76
:100A4000808311964C911197842F90E00196149613
:100A50002D913C9115978217930711F480E002C005
:100A6000842F8F5F11968C93119712968D919C9184
:100A70001397019613969C938E9312970895F8946A
:020A8000FFCFA6
:100A82005AFF0400000003000000050000000300FC
:00000001FF
