:1000000061C175CA7AC179C178C177C176C175C13C
:1000100074C173C172C171C170C16FC16EC16DC154
:100020006CC16BC16AC1F4C830C55FC5FFC6F2C8F8
:10003000F1C8EEC8EFC8EEC87DC8ECC8EBC8EAC886
:10004000E9C8E8C8E7C8E6C886C8A4C8C1C80902A4
:100050002000010100802D0904000002FF000000C3
:100060000705820208000A0705020208000A0000CC
:10007000891112239B322446AD573665BF74488CD4
:10008000C19D5AAFD3BE6CCAE5DB7EE9F7F881109B
:10009000080193331A22A5562C47B7753E64C99CB4
:1000A000408DDBBF52AEEDDA64CBFFF976E802217A
:1000B0008B30100299132667AF763444BD554AAD94
:1000C000C3BC588ED19F6EEBE7FA7CC8F5D983315B
:1000D0000A2091121803A7772E66B5543C45CBBD74
:1000E00042ACD99E508FEFFB66EAFDD874C904423A
:1000F0008D5316619F702004A9153227BB364CCE54
:10010000C5DF5EEDD7FC6888E1997AABF3BA85521A
:100110000C4397711E60A1142805B3373A26CDDE33
:1001200044CFDFFD56ECE9986089FBBB72AA0663F9
:100130008F7214409D512225AB343006B9174EEF13
:10014000C7FE5CCCD5DD6AA9E3B8788AF19B8773DA
:100150000E6295501C41A3352A24B1163807CFFFF3
:1001600046EEDDDC54CDEBB962A8F99A708B0884B9
:1001700081951AA793B62CC2A5D33EE1B7F04008EB
:10018000C919522BDB3A644EED5F766DFF7C899482
:1001900000859BB712A6ADD224C3BFF136E0C118CB
:1001A0004809D33B5A2AE55E6C4FF77D7E6C0AA561
:1001B00083B4188691972EE3A7F23CC0B5D14229AB
:1001C000CB38500AD91B666FEF7E744CFD5D8BB542
:1001D00002A499961087AFF326E2BDD034C1C3398B
:1001E0004A28D11A580BE77F6E6EF55C7C4D0CC621
:1001F00085D71EE597F42880A1913AA3B3B2444A6B
:10020000CD5B5669DF78600CE91D722FFB3E8DD601
:1002100004C79FF516E4A9902081BBB332A2C55A4A
:100220004C4BD7795E68E11C680DF33F7A2E0EE7E0
:1002300087F61CC495D52AA1A3B03882B193466B2A
:10024000CF7A5448DD59622DEB3C700EF91F8FF7C1
:1002500006E69DD414C5ABB122A0B9923083C77B0A
:100260004E6AD5585C49E33D6A2CF11E780F0403B1
:1002700009040C03410074006D0065006C001A0352
:100280004A00540041004700490043004500200057
:100290006D006B00490049001A0355004C004C00EA
:1002A000490048004F004D0045002E004400450025
:1002B000450012011001FF000008EB0303210001BB
:1002C0000102030111241FBECFE5D4E0DEBFCDBF84
:1002D00010E0A0E6B0E0E8ECF7E102C005900D9276
:1002E000A638B107D9F712E0A6E8B0E001C01D9228
:1002F000AD31B107E1F79ED065CA82CEFC018181A4
:100300008E3131F4F89488E181BD8DE081BDFFCF5D
:1003100080E008958EE490E09093020280930102C1
:1003200080E208950F931F93FC018091A1008093B8
:100330008A0080916000813021F0853009F067C02B
:1003400041C02181328130938700209386008381D0
:1003500094819093890080938800232B31F48FEF50
:100360009FEF9093620080936100683009F04FC066
:1003700080818B3109F04BC087818E3009F047C0F6
:100380008581882309F043C08681882309F03FC016
:100390008091610090916200019690936200809339
:1003A000610085E080936000A4EAB0E088E00190FD
:1003B0000D928150E1F788E090E090939400809353
:1003C000930028C0062F10E02091930030919400F4
:1003D0002C553F4FC901BF01402F50E0EAD9809111
:1003E000930090919400800F911F909394008093BC
:1003F00093002091880030918900265F3F4F82173B
:10040000930740F0309392002093910003C081E065
:10041000809360001F910F91089585B3886185BB1B
:1004200084B3886184BB0DD3B89A8FEFEFD1B898AD
:1004300008D70895EF92FF920F931F93CF93DF9306
:10044000AA9AEBDF789480E090E060E014D810E0A6
:1004500001E0EE24EA94FE2C115049F4809104024C
:100460008111AD9880918C00882309F4AB98F3D664
:1004700060919100709192006115710549F084EAD4
:1004800090E08ED100936000109292001092910043
:1004900020918D0030918E0021153105E9F2809177
:1004A0008B00882339F010928B0080E090E060E0B0
:1004B000E2D7D2CF80918600909187008093A500EB
:1004C0009093A6002093A7003093A800F092E20139
:1004D000E092E101C0E0D0E006C0FE01EC55FF4F24
:1004E00080814ED0219620918D0030918E00F901AF
:1004F0003896CE17DF0788F3EC55FF4F8091E10166
:100500009091E20191838083265F3F4F30938E006C
:1005100020938D0001C09FD68091840084FFFBCF83
:10052000AB9880918F0090919000C0918D00D091F8
:100530008E00C81BD90BC930D10510F0C8E0D0E03F
:100540008C559F4F6C2F97D701C085D68091840022
:1005500084FFFBCF80918F00909190008C0F9D1FA6
:100560009093900080938F002897D9F2AB9A1092C5
:100570008E0010928D001092900010928F006CCF20
:100580009091E1019827E92FF0E0EE0FFF1FE2596B
:10059000FF4F259134918091E20190E0282739277F
:1005A0003093E2012093E101089570938E006093EF
:1005B0008D001092900010928F008093AC000895EF
:1005C0008DE190E090938E0080938D0010929000CA
:1005D00010928F0086E88093AC0080917100809328
:1005E000AD00809172008093AE0080917C0090916C
:1005F0007D009093B0008093AF008091960080932F
:10060000B100809173008093B20080917A00909144
:100610007B009093B4008093B30080919500809309
:10062000B500A6EBB0E0E4E7F0E086E001900D92C3
:100630008150E1F7ACEBB0E0E3E6F0E08CE0019054
:100640000D928150E1F781E080938B000895FC01C9
:1006500080818230A9F0833038F4882309F484C083
:10066000813009F09CC00AC08C3009F462C08F3020
:1006700009F488C0833009F092C011C0A1DF089549
:100680008181833021F0873009F089C004C08281E4
:100690008093A20069C082818093970065C08181A8
:1006A0008230C9F0863089F1813009F078C083E06A
:1006B00090E090938E0080938D00109290001092A5
:1006C0008F0081E88093AC00809195009091960016
:1006D00092838183089585E090E090938E008093CB
:1006E0008D001092900010928F0081E88093AC00F2
:1006F00080917A0090917B00A0917C00B0917D0068
:1007000081839283A383B483089583E090E09093E0
:100710008E0080938D001092900010928F0081E8DF
:100720008093AC0080916F00818380917000828300
:100730000895DF01AC50BF4F9C9196959C93EB5070
:10074000FF4F8081E55FF040882311F090689C9313
:100750008C918093A300EA50FF4F80818093E60143
:10076000B89680818093E30181E090E090938E00C1
:1007700080938D001092900010928F0080E88093FB
:10078000AC00089581E090E090938E0080938D00FE
:100790001092900010928F0080E88093AC00089532
:1007A0000F931F93CF93DF93FC018C01085F1F4FC2
:1007B00080858F3271F481E090E090938E00809379
:1007C0008D001092900010928F008AEA8093AC0006
:1007D00012C0EB012A97C801BE0139DF80918D005C
:1007E00090918E00892B39F48091A200813019F408
:1007F000C801BE012BD1DF91CF911F910F910895B8
:1008000002C0000081508823E1F7089513C0000062
:100810009150E8F79AEF01C000009150E8F79AEF85
:1008200001C000009150E8F79AEF01C0000091501C
:10083000E8F78150882311F09AEFEACF0895382F16
:1008400020E041E050E00FC0CA01022E02C0880F34
:10085000991F0A94E2F7832311F0C29A01C0C2984B
:10086000C59AC5982F5F261778F30895382FC29838
:1008700091E020E00FC0892F832311F0C39A01C0BB
:10088000C398B499292B613009F4C29AC59AC598C6
:10089000990F6150662379F7C59AC598822F0895FC
:1008A0001F93CF93DF93DC01EB01642F677083E02C
:1008B000569547958A95E1F7C298662319F44150F9
:1008C000504068E04115510511F410E037C0C5985B
:1008D000BD9ABB9ABC9880E78DB981E08EB910971C
:1008E00019F08C918FB901C01FB8415050409A0146
:1008F00090E015C0779BFECF209729F08FB1FE01C5
:10090000E90FF11D80839F5F109731F0FD01E90F22
:10091000F11D80818FB901C01FB8215030402115D1
:10092000310541F7779BFECF209729F08FB1FE016B
:10093000E40FF11D8083142F1F5F1DB8109711F471
:1009400080E003C0A10FB11D8C9190DF209719F0BA
:10095000C10FD11D8883DF91CF911F9108950F930F
:100960001F93182F062F83E064E069DF812F602F2B
:100970007DDF1F910F910895BF92CF92DF92EF928A
:10098000FF920F931F938C017B016A01B22E81E0CD
:1009900063E055DFC801B701A60182DFBB2019F073
:1009A00080E061E04CDF1F910F91FF90EF90DF90AE
:1009B000CF90BF900895FF920F931F93182F062F8B
:1009C000F42E81E063E03BDF812F602F4FDF182F93
:1009D000FF2019F080E061E032DF812F1F910F913D
:1009E000FF9008950F931F93DF93CF9300D000D013
:1009F000CDB7DEB79C838B83162F042F81E063E095
:100A00001EDFCE010396BE016F5F7F4F412F50E086
:100A100047DF002319F080E061E011DF89819A81CE
:100A20000F900F900F900F90CF91DF911F910F912A
:100A30000895C29ABA9AC598BD9AC39ABB9ABC98AF
:100A40000895BA98BD98BB98BC9808956F927F920C
:100A50008F929F92AF92BF92CF92DF92EF92FF92CE
:100A60000F931F93DF93CF9300D00F92CDB7DEB7D4
:100A70007C01FC01808190E0FC013297E431F105BA
:100A800008F0C8C3ED5EFF4F0994F70181818E30F5
:100A900051F580918C00882321F4CBDF8FE166E053
:100AA000CEDE81E064E05BDF80E090E069E970E049
:100AB00040E250E021E060DF80918C00882309F45F
:100AC000C0DF81E865E070E070DD80919900909171
:100AD0009A00A0919B00B0919C00F70181839283C2
:100AE000A383B4839BC381EA96C3F7018181813BD1
:100AF00009F48CC0823B20F4803B09F019C307C085
:100B0000823B09F4DEC0833B09F012C364C1F701E4
:100B1000968196959683878180FF02C09068968320
:100B2000F701978196959783808580FF02C0906832
:100B30009783F7011781068185E064E010DF80E18B
:100B400093E26FE041E04EDFF7018185882329F0D1
:100B500081E09BE06FE041E045DF812F90E097600E
:100B60006FE041E03FDF802F90E093606FE041E075
:100B700039DF86E064E0F3DE8091E301882319F435
:100B800000E010E016C04091A30050E064E0440F84
:100B9000551F6A95E1F7C7010A9660E070E021E011
:100BA000EBDE15C0F701818568E040E004DF0F5FF0
:100BB0001F4F0894E11CF11C8091A30090E0880F66
:100BC000991F0817190770F380E061E038DE85E0AF
:100BD00064E0C5DE80E097E36FE041E003DF80E0A2
:100BE00095E36FE041E0FEDE80E097E36FE041E0F7
:100BF000F9DE80E097E36FE041E0F4DE80E097E328
:100C00006FE041E0EFDE91FFF9CF02C385E064E0E1
:100C1000A6DE81E193E26FE041E0E4DEF701878147
:100C200090E097606FE041E0DDDE670100E010E0FA
:100C300023C0F70186819801280F311DC9019070EA
:100C400093606FE041E0CEDEF601818590E0936134
:100C50006FE041E0C7DE80E097E36FE041E0C2DE95
:100C600080E097E76FE041E0BDDE80E097E36FE072
:100C700041E0B8DE0F5F1F4F0894C11CD11C80916A
:100C8000E60190E008171907A0F280E093E36FE017
:100C900041E0A8DE80E091E36FE041E0A3DE80E088
:100CA00093E36FE041E09EDE80E093E36FE041E09C
:100CB00099DE80E093E36FE041E094DE91FFF9CFAD
:100CC000A7C2F701B280168185E064E048DE80E4C7
:100CD00093E26FE041E086DE6701EE24FF24012FFE
:100CE00010E075C09701200F311F2115310519F54E
:100CF000F601828590E093616FE041E073DE80E071
:100D000093E36FE041E06EDE80E091E36FE041E06D
:100D100069DE80E093E36FE041E064DE80E093E32E
:100D20006FE041E05FDE80E097E36FE041E05ADE94
:100D300091FFF9CF46C0F60182852130310509F5D2
:100D400090E093616FE041E04DDE80E097E36FE07B
:100D500041E048DE80E095E36FE041E043DE80E083
:100D600097E36FE041E03EDE80E097E36FE041E033
:100D700039DE80E097E36FE041E034DE91FFF9CFA8
:100D800020C090E093616FE041E02CDE80E09BE3C7
:100D90006FE041E027DE80E099E36FE041E022DE92
:100DA00080E09BE36FE041E01DDE80E09BE36FE0CD
:100DB00041E018DE80E097E36FE041E013DE91FF51
:100DC000F9CF0894E11CF11C0894C11CD11CEB1450
:100DD00008F488CF1DC285E064E0C1DD80E293E2C3
:100DE0006FE041E0FFDDF701828590E093616FE005
:100DF00041E0F8DD80E093E36FE041E0F3DD80E087
:100E000091E36FE041E0EEDD80E093E36FE041E0ED
:100E1000E9DD80E093E36FE041E0E4DD80E093E32F
:100E20006FE041E0DFDD91FFF9CFF2C1F701B28061
:100E3000CB2CDD24938180E04C018C0C9D1C370170
:100E40000894611C711C8181823B09F4BCC0833B06
:100E500030F4803B71F0813B09F06AC173C0843B80
:100E600009F4FAC0843B08F4F1C0853B09F060C185
:100E700040C1F701968196959683878180FF02C0D5
:100E800090689683F701978196959783808580FF78
:100E900002C090689783F7011781068185E064E0BE
:100EA0005EDD82E093E26FE041E09CDDF701818549
:100EB000882329F081E09BE06FE041E093DD812F02
:100EC00090E097606FE041E08DDD802F90E09360CF
:100ED0006FE041E087DD87E064E041DD8091E30180
:100EE000882319F400E010E01CC080E068E041E0D5
:100EF00062DD4091A30050E034E0440F551F3A9565
:100F0000E1F780E090E0B30121E036DD15C00F5F2E
:100F10001F4F80E068E040E04EDDF701E00FF11F79
:100F200080838091A30090E0880F991F081719070C
:100F300070F380E061E083DC6091A30070E0660FF5
:100F4000771F80C085E064E00ADD83E093E26FE014
:100F500041E048DDF70197818681C82EDD2400E05D
:100F600010E0A92EBB2420E037E0A22AB32A22C039
:100F7000C5016FE041E036DDC601907093606FE01F
:100F800041E030DDC60193636FE041E02BDD80E09E
:100F900092E36FE041E026DD0F5F1F4F80E093E3B7
:100FA0006FE041E01FDDF701E00FF11F808308943F
:100FB000C11CD11C08151905D8F20894811C911C7C
:100FC00082E8B4012AC1F701068185E064E0C7DC4C
:100FD00084E093E26FE041E005DD80E092E36FE0C2
:100FE00041E000DD80E093E36FE041E0FBDC8983DA
:100FF00080E09EE36FE041E0F5DC80E09FE36FE09E
:1010000041E0F0DC8A8380E09AE36FE041E0EADCD3
:1010100080E09BE36FE041E0E5DC8B8310E0CE01F4
:101020000196DC01A00FB11FF7010C0D1D1D080F6B
:10103000191F02C08D9180833196A017B107D1F797
:101040006B2D70E06F5F7F4F82E8E7C085E064E062
:1010500086DC84E093E259C0F701068185E064E014
:101060007EDC88E093E26FE041E0BCDC80E093E06E
:101070006FE041E0B7DC80E092E36FE041E0B2DC9A
:1010800080E093E36FE041E0ADDC898381E093E0B1
:101090006FE041E0A7DC80E092E36FE041E0A2DC9A
:1010A00080E093E36FE041E09DDC8A8382E093E09F
:1010B0006FE041E097DC80E092E36FE041E092DC9A
:1010C00080E093E36FE041E08DDC8B8310E0CE01A4
:1010D0000196DC01A00FB11FF7010C0D1D1D080FBB
:1010E000191F02C08D9180833196A017B107D1F7E7
:1010F000A7CF85E064E033DC88E093E26FE041E075
:1011000071DCF701868190E093606FE041E06ADC7A
:1011100080E096E36FE041E065DC80E097E36FE01C
:1011200041E060DCF701818382E862E070E075C035
:1011300082EA71C08CE064E012DC81E061E041E0B1
:101140003ADC81E063DB8CE064E009DC80E061E0B4
:1011500041E031DC5DC085E064E001DC80E893E2E1
:101160006FE041E03FDC80E891E36FE041E03ADC92
:1011700080E893E36FE041E035DC80E893E36FE0E3
:1011800041E030DC80E893E36FE041E02BDC91FF4D
:10119000F9CF3EC080918C00882339F482E080939F
:1011A0008C0047DC8FE166E04ADB8CE064E0D7DB53
:1011B00081E090E061E041E015DC84E064E0CFDBB9
:1011C00080E793EA60E141E00DDC8AE01FDB20C0AC
:1011D00085E064E0C4DB80E093E26FE041E002DCA4
:1011E00080E093E36FE041E0FDDB84E064E0B7DBA7
:1011F00080E090E060E141E0F5DB8CE064E0AFDBB3
:1012000080E090E061E041E0EDDB1BDC10928C00BF
:1012100080E801C080EA61E070E0C7D980E00F900B
:101220000F900F90CF91DF911F910F91FF90EF9052
:10123000DF90CF90BF90AF909F908F907F906F90F6
:10124000089585B7836085BF8BB780648BBF83ECBF
:101250008093F30108950F931F93CF93DF936091D1
:10126000030216160CF0ABC080910002CCE0D0E077
:10127000C81BD109C95FDD4F63508091FF018031E8
:1012800018F4CE014FD895C08D3209F08AC08AE596
:1012900080938300683009F084C08881807609F0EB
:1012A00072C01092F1018981882359F41092F201E1
:1012B00081EF91E0909302028093010230E822E0F6
:1012C00069C0853021F48A81809304025AC0863037
:1012D000E9F58B81813049F482EB92E09093020230
:1012E0008093010230EC22E155C0823029F4CE0116
:1012F00011D8282F30EC4EC0833009F049C08A81C4
:10130000882349F48EE692E09093020280930102D2
:1013100030EC24E03FC0813049F482E792E09093C2
:1013200002028093010230EC2CE034C0823019F4C8
:101330008EE792E004C0833059F588E992E09093FB
:1013400002028093010230EC2AE124C0883019F4B3
:1013500086E092E00AC0893021F48A8180930602F7
:1013600010C08A3049F481EF91E09093020280939B
:10137000010230E821E00EC08B3019F483EC809339
:10138000F30130E806C0CE01B9D7282F30E802C0FB
:1013900030EC20E08F81882339F48E81821728F089
:1013A00003C030E880E001C0822F30939800809322
:1013B000820080910302181614F4109203028091A7
:1013C000830084FF49C0809182008F3F09F444C0AC
:1013D000182F893008F018E0811B809382008091DB
:1013E000980080FD02C00BE401C003EC8F5F809386
:1013F0009800209101023091020286FD05C0D901BA
:10140000912FE9EEF1E011C0A9EEB1E080E090E0AB
:1014100006C0F901E80FF91FE491ED930196181742
:10142000C1F705C08D91819391509923D9F7F901A6
:10143000E10FF11DF0930202E093010289EE91E0C9
:10144000612F51D0183019F08FEF809382000093F4
:10145000E8011C5F109383009AE086B3837031F437
:101460009150D9F7109204021092FE01DF91CF91B2
:101470001F910F9108951F93DC01162F8091840016
:1014800084FF0AC08091F30198E889278093F301D3
:10149000912FE4EFF1E007C08AE580938400F8CF54
:1014A0008D91819391509923D9F784EF91E0612F29
:1014B0001AD01C5F109384001F910895A82FB92F94
:1014C00080E090E041E050EA60956F5F58F42D9124
:1014D00038EF82279795879510F0842795273F5FEF
:1014E000C8F3F3CF0895EADF8D939D930895CF93CA
:1014F000CFB7CF93B09BFECFB09B09C0B09B07C0C6
:10150000B09B05C0B09B03C0B09B01C0A6C0DF93D9
:10151000C0910002DD27C95FDD4FB09B02C0DF91A3
:10152000EBCF2F930F931F9306B32FEF00FB20F900
:101530004F933F9316B34FEF012700FB21F93BE098
:1015400031C04E7F012F16B3216028C0102F4D7F70
:101550002260000006B329C04B7F2460012F0000E9
:1015600016B32BC016B3477F28602AC04F7E06B340
:1015700020612CC04F7D16B320622FC04F7B06B375
:10158000206432C0422706B349934FEF0000102772
:1015900010FB20F916B31370C9F1297F91F20127CE
:1015A00000FB21F906B3237F89F2315058F110274F
:1015B00010FB22F916B3277E79F2012700FB23F9ED
:1015C0002F7C81F206B3102710FB24F92F7971F2DA
:1015D00000C016B3012700FB25F92F7359F200C094
:1015E00006B3102710FB26F9223040F200C016B3D4
:1015F000012700FB27F9243028F64F77206816B31F
:101600000000F9CF10E41ABF00271CC03B503195F1
:10161000C31BD04010E41ABF0881033C11F10B3406
:1016200001F12091FE011981110F1213EDCF4A81B2
:10163000441F093671F10D3211F0013E29F74F7048
:1016400009F0042F009305023F914F911F910F91D4
:101650002F91DF91CAB7C6FD4DCFCF91CFBFCF91AC
:101660001895402F00910502002371F31091030299
:101670001123B1F53430B2F14093A100309303024D
:101680000093FF01109100023BE0311B30930002F8
:1016900029C00091030201301CF50AE54F7049F49E
:1016A0003091830034FD20C000938300C8EED1E068
:1016B0001FC03091840034FD17C000938400C3EF35
:1016C000D1E016C0052710E008BB1FC0052722C0C7
:1016D000052727C005272CC0052710E008BB33C00D
:1016E0004AE503C042ED01C0432FC4E1D0E032E03F
:1016F00017B31360C09A08B317BB5F9353E020E899
:1017000020FF052708BB279517951C3FD8F620FF1B
:101710000527279508BB17951C3FC0F620FF052716
:101720002795179508BB1C3F98F620FF052727959E
:1017300017951C3F08BB70F600C0499120FF052794
:1017400008BB279517951C3F38F620FF05272795DE
:1017500008BB17951C3F38F520FF052727951795DF
:1017600008BB1C3F10F520FF0527279517951C3F48
:1017700008BBE8F4242F3A9519F60C7F5F9108BB5B
:1017800010910402110FC651D04011F01093FE01C8
:1017900010E41ABF016017B31C7F402F4C7F08BBB9
:1017A00017BB48BB51CF0527D3CF0527D8CF052777
:1017B000DDCFFB01DC0102C001900D924150504091
:0817C000D8F70895F894FFCF5B
:1017C80001FFFF4A544147494345206D6B49498809
:1017D8001311FFFF00A20000011E2C052C050000BC
:0617E8000000FF5A5A0048
:00000001FF
