:1000000053C0A6C16CC06BC06AC069C068C067C07D
:1000100066C0CBC264C063C062C061C060C05FC064
:100020005EC05DC05CC0ABC4B2C4B6C4BCC4C9C40D
:10003000CBC4D1C4D7C4DDC4E8C4EAC4F5C4F7C492
:10004000FEC404C50BC516C50403090420037700CC
:10005000770077002E0075006C006C006900680066
:100060006F006D0065002E006400650018035500E8
:1000700053004200200041005600520020004C0076
:100080006100620012011001FF000008C016DC05CB
:1000900000010102000109021200010100802D0986
:1000A000040000000000000011241FBECFE5D4E0D2
:1000B000DEBFCDBF10E0A0E6B0E0EAE9FBE002C0A1
:1000C00005900D92A037B107D9F714E0A0E7B0E092
:1000D00001C01D92AD32B107E1F706D45CC590CFE7
:1000E00085B7836085BF8BB780648BBF08951F93EE
:1000F000CF93DF9360918D00635067FDA6C0809120
:100100008A00CCE0D0E0C81BD109CF56DF4F8091E8
:1001100089008D3209F083C0683009F090C083EC0B
:1001200080937D008AE58093600010927000888142
:10013000807639F0CE016DD3282F8F3F09F45EC051
:1001400064C09A81109286008981882321F41092DC
:10015000870022E04CC0853019F490938E0046C091
:100160008630A9F58B81813019F484E890E004C0D1
:10017000823041F486E990E090938C0080938B006C
:1001800022E121C08330F1F4992341F488E490E026
:1001900090938C0080938B0024E015C0913041F443
:1001A0008CE490E090938C0080938B0020E20BC055
:1001B000923041F48CE690E090938C0080938B0019
:1001C00028E101C020E080E4809370001EC08830E8
:1001D00021F421E080E990E00CC0893019F490937B
:1001E000900004C08A3011F421E001C020E086E8CC
:1001F00090E090938C0080938B0007C0888187FDEE
:100200002E8180E88093700006C08F81882319F4C6
:100210008E81821708F0822F8093610010C0809138
:10022000700087FF0CC0CE019BD28F3F21F48EE17E
:100230008093600004C0882311F0109261008091C7
:100240008D00181614F410928D008091600084FFC8
:1002500058C0809161008F3F09F453C0182F893036
:1002600008F018E0811B8093610080917D0098E880
:10027000892780937D00112391F18091700087FF81
:1002800008C08EE790E0612F9CD2182F893098F536
:1002900026C020918B0030918C0086FF0DC0AEE708
:1002A000B0E080E090E0F901E80FF91FE491ED93F0
:1002B00001961817C1F708C0912FD901EEE7F0E0B9
:1002C0008D9181939150E1F71150812F90E01F5F44
:1002D0000196820F931F90938C0080938B008EE782
:1002E00090E0612F31D0612F6C5F6C3041F08FEF67
:1002F0008093610004C08FEF809361006EE1609392
:10030000600094E186B3837031F49150D9F7109274
:100310008E0010928800DF91CF911F910895A82F31
:10032000B92F80E090E041E050EA60956F5F58F4AB
:100330002D9138EF82279795879510F08427952780
:100340003F5FC8F3F3CF0895EADF8D939D9308953F
:10035000CF93CFB7CF93C395B09BE9F7B09B09C0BC
:10036000B09B07C0B09B05C0B09B03C0B09B01C051
:10037000A1C0DF93C0918A00DD27CF56DF4FB09B2D
:1003800002C0DF91EBCF2F930F931F9306B32FEF94
:1003900000FB20F94F933F9316B34FEF012700FB6B
:1003A00021F93BE031C04E7F012F16B3216028C0F8
:1003B000102F4D7F2260000006B329C04B7F2460C0
:1003C000012F000016B32BC016B3477F28602AC048
:1003D0004F7E06B320612CC04F7D16B320622FC024
:1003E0004F7B06B3206432C0422706B349934FEFD8
:1003F0000000102710FB20F916B31370C9F1297FF4
:1004000091F2012700FB21F906B3237F89F23150D5
:1004100058F1102710FB22F916B3277E79F2012735
:1004200000FB23F92F7C81F206B3102710FB24F97F
:100430002F7971F200C016B3012700FB25F92F7345
:1004400059F200C006B3102710FB26F9223040F203
:1004500000C016B3012700FB27F9243028F64F7798
:10046000206816B30000F9CF10E41ABF002717C0A8
:100470003B503195C31BD04010E41ABF0881033CA8
:10048000E9F00B34D9F0209188001981110F121373
:10049000EDCF093641F10D3211F0013E39F70093ED
:1004A0008F003F914F911F910F912F91DF91CAB70C
:1004B000C6FD51CFCF91CFBFCF91189520918F001E
:1004C000222379F310918D00112311F5343012F1AC
:1004D00030938D002093890010918A003BE0311BFE
:1004E00030938A0017C000918D0001308CF40AE52A
:1004F0003091600034FD10C000936000CDE7D0E083
:100500000FC02795A8F45150A9F4220F0000F9CF8D
:100510004AE503C042ED01C0432FC4E1D0E032E020
:1005200017B31360C09A17BB08B320E413E05F93BE
:10053000012756E008BB279520F4515021F4220FE3
:10054000F9CF012756E000003B5A08BBD0F22795AF
:1005500028F4515029F4220F0000F9CF012756E06A
:10056000279508BB20F4515021F4220FF9CF012721
:1005700056E02991332308BB21F60C7F10918E00A1
:10058000110FC651D04008BB11F01093880010E441
:100590001ABF016017B31C7F402F4C7F5F9100C0D2
:1005A00000C008BB17BB48BB7CCF1F920F920FB691
:1005B0000F9211248F93F89482E382BF8091A70059
:1005C00081508093A7008091A700882309F413BE6F
:1005D00078948F910F900FBE0F901F90189578947C
:1005E0008093A70082E382BF83B7836083BF89B70C
:1005F000816089BF8091A7008823E1F708957894EE
:100600008093A70082E382BF83B7836083BF89B7EB
:10061000816089BF08958091A800883720F48F5F9A
:100620008093A80008951092A80070916E0060E079
:1006300041E050E0AFEF70C0E62FF0E0EE0FFF1F9B
:10064000EE0FFF1FEE59FF4F9181992309F459C016
:100650009F3F49F425B3CA01008002C0880F991F4B
:100660000A94E2F73DC09230A1F425B3CA0100809C
:1006700002C0880F991F0A94E2F7982F282B25BBF8
:1006800082818823D9F585B39095982395BBA18362
:1006900042C09130A1F485B39A01008002C0220FBC
:1006A000331F0A94E2F7922F9095982395BB82818D
:1006B000882321F585B3282B25BB11822CC082818C
:1006C0008823E1F4928383819081882369F4A38352
:1006D00025B3FA0102C0EE0FFF1F9A95E2F7CF0192
:1006E0008095822385BB17C0138225B3FA0102C00F
:1006F000EE0FFF1F9A95E2F7CF010BC08150828366
:100700000AC025B3CA01008002C0880F991F0A944D
:10071000E2F7282B25BB6F5F671708F48DCF08958C
:1007200060916E0090E041E050E013C084B3E92F87
:10073000F0E0EE0FFF1FEE0FFF1FEE59FF4F9A0183
:10074000008002C0220F331F0A94E2F7822B84BB81
:100750009F5F961758F388E78093A8005CDF0895A1
:100760000F93DF93CF9300D0CDB7DEB7482F792F0B
:10077000062F80917100823011F00FEF1BC0262FE1
:1007800030E03A832983209172003091730027551D
:100790003F4FC901642F498150E0F4D1809172002C
:1007A00090917300E981FA818E0F9F1F90937300DF
:1007B00080937200802F0F900F90CF91DF910F9157
:1007C0000895FF920F931F93482FF62E809171008A
:1007D000813011F06FEF18C0062F10E020917200E9
:1007E0003091730027553F4F842FB9014F2D50E0B2
:1007F000C9D18091720090917300800F911F9093E6
:100800007300809372006F2D862F1F910F91FF90C0
:100810000895FC011092710081818E3F11F48AE0ED
:1008200022C08E3159F4F89428E088E190E00FB6A8
:10083000F894A89581BD0FBE21BDFFCF813011F086
:10084000823041F410927300109272008093710014
:100850002FEF3CC0833019F4828181D036C08430C0
:1008600031F480917C008093740021E02FC08530AA
:1008700029F48FEF80936B005CD027C0863021F481
:1008800010926B005FD021C0873021F48281638198
:1008900014D1E9CF883051F48091720090917300A7
:1008A000809374009093750022E010C0893069F441
:1008B000609172007091730089EA90E019D18AE02A
:1008C0008093680082E08093670020E08AE0809354
:1008D0006C0082E080936B0084E790E090938C0042
:1008E00080938B00822F08951F93AA9AB89A20E0D4
:1008F00040E757E103C0CA010197F1F72150D9F74A
:10090000B898EEDB78948FEF8093630009DF8AEF6D
:1009100066DE8AEF64DE8AEF62DE109263001FEF0C
:10092000E6DB79DE80918E008823D1F310936B0093
:10093000F7CF88B38C6088BBC59887B38C6287BBC0
:10094000BC98089510927C00BA98C29808958823A4
:1009500011F0C29A01C0C298C59AC598089588231B
:1009600019F090917C0091C010927C000895E92FBD
:10097000F0E0E131F105E8F7ED5EFF4F099490E01A
:10098000C29AC59AC5989F5F9530D1F746C081300D
:1009900009F077C0C29A04C0823009F06DC0C298D5
:1009A000C59AC59872C08A3010F4813029F4C29A71
:1009B000C59AC5989AE069C0C298C59AC59894E04E
:1009C00064C08630C0F002C0853049F3C29AC59A2F
:1009D000C59896E05AC0873099F4C298C59AC598D0
:1009E00097E053C08730D9F2C29AC59AC59898E06B
:1009F0004CC0853029F4C298C59AC59895E045C089
:100A0000C29AC59AC59899E040C08330D1F534C0E8
:100A10008A3028F4C29AC59AC59891E036C0C29827
:100A2000C59AC5989BE031C08D30D0F003C08C30A2
:100A300009F4B5CFC29AC59AC5989DE026C08E30FC
:100A4000A1F4C298C59AC5989EE01FC08E3009F4E3
:100A5000A6CFC29AC59AC5989FE017C08C3029F4DA
:100A6000C298C59AC5989CE010C0C29AC59AC5980C
:100A700090E10BC08A3029F4C29AC59AC59893E0D8
:100A800004C0C298C59AC59892E0981709F06FCF34
:100A900090937C000895C298882311F0C39A01C0F6
:100AA000C398C59AC59886B390E024E0969587953B
:100AB0002A95E1F7817008950895C29890E00FC0DB
:100AC00080FF02C0C39A01C0C3989695B4999068FC
:100AD000613009F4C29AC59AC5988695615066231B
:100AE00079F780917C008F5F80937C00892F089537
:100AF000EF92FF920F931F93CF93DF937C01EB0153
:100B0000C29880E78DB99B010BC0F701E80FF91F70
:100B100080818FB9779BFECF8FB180832150304089
:100B2000AE01421B842F90E02230310570F76E98A1
:100B30008701080F191FF801808168E0BEDFF80106
:100B400080838E011695079540E0BE01615070408C
:100B50000DC0D701A20FB31F9C91FB01E21BF30B49
:100B6000EE0DFF1D80818C9390834F5F242F30E02A
:100B70002017310770F3DF91CF911F910F91FF90F4
:100B8000EF900895FB01DC0102C001900D924150ED
:0A0B90005040D8F70895F894FFCF05
:100B9A005AFF0400000003000000050000000300E3
:00000001FF
