:1000000042C03AC25BC05AC059C058C057C056C05F
:1000100055C05FC353C052C051C050C090C34EC002
:100020004DC04CC04BC00403090420037700770087
:1000300077002E0075006C006C00690068006F008E
:100040006D0065002E006400650018035500530024
:100050004200200041005600520020004C00610088
:10006000620012011001FF000008C016DC0500014B
:100070000102000109021200010100802D090400A3
:1000800000000000000011241FBECFE5D4E0DEBF59
:10009000CDBF10E0A0E6B0E0E2EEFBE002C00590CC
:1000A0000D92A237B107D9F714E0A2E7B0E001C082
:1000B0001D92A334B107E1F7E6D491C5A1CF809199
:1000C0008700883720F48F5F80938700089510920F
:1000D00087007091700060E041E050E0AFEF70C0C9
:1000E000E62FF0E0EE0FFF1FEE0FFF1FEC59FF4F62
:1000F0009181992309F459C09F3F49F425B3CA015E
:10010000008002C0880F991F0A94E2F73DC0923028
:10011000A1F425B3CA01008002C0880F991F0A9478
:10012000E2F7982F282B25BB82818823D9F585B348
:100130009095982395BBA18342C09130A1F485B3DB
:100140009A01008002C0220F331F0A94E2F7922F17
:100150009095982395BB8281882321F585B3282B20
:1001600025BB11822CC082818823E1F49283838194
:100170009081882369F4A38325B3FA0102C0EE0FAE
:10018000FF1F9A95E2F7CF018095822385BB17C0A8
:10019000138225B3FA0102C0EE0FFF1F9A95E2F712
:1001A000CF010BC0815082830AC025B3CA010080F1
:1001B00002C0880F991F0A94E2F7282B25BB6F5FB6
:1001C000671708F48DCF08956091700090E041E0CA
:1001D00050E013C084B3E92FF0E0EE0FFF1FEE0FE5
:1001E000FF1FEC59FF4F9A01008002C0220F331FFE
:1001F0000A94E2F7822B84BB9F5F961758F388E737
:10020000809387005CDF089585B7836085BF8BB7D7
:1002100080648BBF08951F93CF93DF936091980004
:10022000635067FDA6C080919500CCE0D0E0C81B6C
:10023000D109C456DF4F809194008D3209F083C0FC
:10024000683009F090C083EC809388008AE5809341
:100250006000109272008881807639F0CE01E1D280
:10026000282F8F3F09F45EC064C09A8110929100DC
:100270008981882321F41092920022E04CC08530BD
:1002800019F49093990046C08630A9F58B8181308E
:1002900019F482E690E004C0823041F484E790E0F3
:1002A000909397008093960022E121C08330F1F46F
:1002B000992341F486E290E0909397008093960012
:1002C00024E015C0913041F48AE290E090939700C9
:1002D0008093960020E20BC0923041F48AE490E0D3
:1002E000909397008093960028E101C020E080E47D
:1002F000809372001EC0883021F421E08BE990E0E9
:100300000CC0893019F490939B0004C08A3011F41A
:1003100021E001C020E081E990E090939700809374
:10032000960007C0888187FD2E8180E88093720047
:1003300006C08F81882319F48E81821708F0822FDE
:100340008093610010C08091720087FF0CC0CE01C5
:1003500093D38F3F21F48EE18093600004C0882303
:1003600011F01092610080919800181614F4109208
:1003700098008091600084FF58C0809161008F3F99
:1003800009F453C0182F893008F018E0811B8093BE
:1003900061008091880098E8892780938800112364
:1003A00091F18091720087FF08C089E890E0612F89
:1003B00032D3182F893098F526C0209196003091BD
:1003C000970086FF0DC0A9E8B0E080E090E0F90159
:1003D000E80FF91FE491ED9301961817C1F708C0D3
:1003E000912FD901E9E8F0E08D9181939150E1F7E7
:1003F0001150812F90E01F5F0196820F931F909301
:1004000097008093960089E890E0612F31D0612FAA
:100410006C5F6C3041F08FEF8093610004C08FEF10
:10042000809361006EE16093600094E186B3837015
:1004300031F49150D9F71092990010929300DF9106
:10044000CF911F910895A82FB92F80E090E041E04F
:1004500050EA60956F5F58F42D9138EF8227979599
:10046000879510F0842795273F5FC8F3F3CF089551
:10047000EADF8D939D930895CF93CFB7CF93C39524
:10048000B09BE9F7B09B09C0B09B07C0B09B05C00B
:10049000B09B03C0B09B01C0A1C0DF93C091950089
:1004A000DD27C456DF4FB09B02C0DF91EBCF2F9307
:1004B0000F931F9306B32FEF00FB20F94F933F9349
:1004C00016B34FEF012700FB21F93BE031C04E7F0F
:1004D000012F16B3216028C0102F4D7F226000002D
:1004E00006B329C04B7F2460012F000016B32BC038
:1004F00016B3477F28602AC04F7E06B320612CC008
:100500004F7D16B320622FC04F7B06B3206432C0EC
:10051000422706B349934FEF0000102710FB20F944
:1005200016B31370C9F1297F91F2012700FB21F95D
:1005300006B3237F89F2315058F1102710FB22F9BE
:1005400016B3277E79F2012700FB23F92F7C81F275
:1005500006B3102710FB24F92F7971F200C016B3EF
:10056000012700FB25F92F7359F200C006B31027AD
:1005700010FB26F9223040F200C016B3012700FB21
:1005800027F9243028F64F77206816B30000F9CFFA
:1005900010E41ABF002717C03B503195C31BD04051
:1005A00010E41ABF0881033CE9F00B34D9F0209124
:1005B00093001981110F1213EDCF093641F10D325D
:1005C00011F0013E39F700939A003F914F911F912E
:1005D0000F912F91DF91CAB7C6FD51CFCF91CFBFF9
:1005E000CF91189520919A00222379F310919800C9
:1005F000112311F5343012F13093980020939400B8
:10060000109195003BE0311B3093950017C000918D
:10061000980001308CF40AE53091600034FD10C080
:1006200000936000C8E8D0E00FC02795A8F45150AF
:10063000A9F4220F0000F9CF4AE503C042ED01C042
:10064000432FC4E1D0E032E017B31360C09A17BB68
:1006500008B320E413E05F93012756E008BB279519
:1006600020F4515021F4220FF9CF012756E0000069
:100670003B5A08BBD0F2279528F4515029F4220F99
:100680000000F9CF012756E0279508BB20F4515010
:1006900021F4220FF9CF012756E02991332308BB1B
:1006A00021F60C7F10919900110FC651D04008BB64
:1006B00011F01093930010E41ABF016017B31C7F70
:1006C000402F4C7F5F9100C000C008BB17BB48BBE8
:1006D0007CCF1F920F920FB60F9211248F93F89434
:1006E00082E382BF8091B20081508093B2008091FA
:1006F000B200882309F413BE78948F910F900FBE37
:100700000F901F90189578948093B20082E382BF77
:1007100083B7836083BF89B7816089BF8091B2004E
:100720008823E1F7089578948093B20082E382BF32
:1007300083B7836083BF89B7816089BF08951F92A3
:100740000F920FB60F9211242F933F934F938F93D5
:100750009F93EF93FF938091780090917900855853
:100760009340F8F086B1877586B985E08093620082
:1007700045B321E030E0C9010090680002C0880F55
:10078000991F0A94E2F78095842385BB85B3009076
:10079000640002C0220F331F0A94E2F7822B85BB4C
:1007A0000FC0809178009091790024B135B1FC019F
:1007B000E154FF4F20830196909379008093780055
:1007C000FF91EF919F918F914F913F912F910F90BA
:1007D0000FBE0F901F901895809176009091770032
:1007E000892BF1F045B381E090E09C010090680016
:1007F00002C0220F331F0A94E2F7422B45BB25B3F8
:100800000090640002C0880F991F0A94E2F7809557
:10081000822385BB84E08093620086B1886E86B9AE
:100820000895FC0151815E3F11F489E061C05E31A1
:1008300059F4F89428E088E190E00FB6F894A89570
:1008400081BD0FBE21BDFFCF513021F45093730005
:100850002FEFD9C0543029F5809176009091770020
:10086000892B09F4CFC045B381E090E09C01009052
:10087000680002C0220F331F0A94E2F7422B45BBE7
:1008800025B30090640002C0880F991F0A94E2F714
:100890008095822385BB5093620086B1886E86B9AD
:1008A000B1C05330D1F45093620045B321E030E041
:1008B000C9010090640002C0880F991F0A94E2F7F2
:1008C000482B45BB85B30090680002C0220F331F40
:1008D0000A94E2F7822B85BB95C0563069F4828179
:1008E000E199FECF90E044969FBB8EBBE09A8DB31A
:1008F00080937F0021E087C0553079F48281238185
:10090000E199FECF90E044969FBB8EBB2DBB0FB606
:10091000F894E29AE19A0FBE75C05730E9F48281EB
:100920008093740086E08093620045B321E030E05C
:10093000C9010090680002C0880F991F0A94E2F76D
:100940008095842385BB0090640002C0220F331F72
:100950000A94E2F725BB56C0583021F48281809377
:10096000750050C0593009F048C0938180E0228161
:10097000AC01420F511D86B1887F86B948305105C0
:1009800030F486B1876086B987E090E028C04F30A8
:10099000510530F486B1866086B98EE090E01FC0C4
:1009A0004E31510530F486B1856086B98DE190E015
:1009B00016C04B33510520F4329A8AE390E00FC001
:1009C0004437510530F486B1836086B983E790E0FF
:1009D00006C0483E510538F4319A87EE90E0909376
:1009E00077008093760080917600909177008093D5
:1009F0007F009093800022E006C05A3019F4809165
:100A0000620076CF20E08FE790E09093970080938C
:100A10009600822F08959C0180917300813011F01F
:100A20004FEF28C0D90140E023C020917A003091D7
:100A30007B0080917800909179002817390748F061
:100A4000109279001092780010927B0010927A0038
:100A500011C080917A0090917B00FC01E154FF4F1E
:100A600020812D934F5F019690937B0080937A00B5
:100A70004617D8F2842F089580917300823009F0D0
:100A80006FEF862F08950F931F93CF93DF93AA9A4A
:100A9000B89A20E040E757E103C0CA010197F1F797
:100AA0002150D9F7B898B0DB789425B301E010E075
:100AB000C8010090680002C0880F991F0A94E2F7ED
:100AC000282B25BB25B3C8010090640002C0880F05
:100AD000991F0A94E2F78095822385BB8AEF13DE83
:100AE0008AEF11DE8AEF0FDE85B30090640002C04A
:100AF000000F111F0A94E2F7802B85BBE0DAA9985A
:100B000081E087B987B1806C87B986B1806C86B97E
:100B10003699FECFC1E0D0E004E0809162008330DE
:100B200011F0853091F480919900882361F025B30C
:100B3000CE0100906C0002C0880F991F0A94E2F762
:100B40008095822385BB67DBE8CF863031F78091C3
:100B5000B200882321F45FDB8AE0E5DDDECF86B1D9
:100B6000806C86B93699FECF80917400813049F44B
:100B700024B135B18091750090E02817390758F0FD
:100B8000CCCF823051F624B135B18091750090E020
:100B90008217930710F68091760090917700892B49
:100BA00009F4BBCF25B3CE010090680002C0880FC6
:100BB000991F0A94E2F7282B25BB25B3CE0100909C
:100BC000640002C0880F991F0A94E2F7809582237F
:100BD00085BB0093620086B1886E86B99ECFF8947B
:020BE000FFCF45
:100BE2005AFF03010400000003000000050000009A
:020BF2000300FE
:00000001FF
