:1000000041C0BEC25AC059C058C057C056C055C0E2
:1000100054C08CC052C051C050C04FC04EC04DC023
:100020004CC04BC04AC0040309041C0343006100D8
:1000300068007900610020005700690072006100CB
:10004000770061006E001A0375007300620076008D
:100050006C00610062002D006A007400610067009E
:1000600012011001FF000008C016DC0500010102AA
:10007000000109021200010100803C090400000097
:100080000000000011241FBECFE5D4E0DEBFCDBFCD
:1000900010E0A0E6B0E0E8E8FFE002C005900D92B5
:1000A000A437B107D9F713E0A4E7B0E001C01D926F
:1000B000AC3DB107E1F7D9D365C7A2CFE82FF0E097
:1000C000EE0FFF1FEE0FFF1FE05AFF4F63834183C8
:1000D00008950895A8950CD15FD080918F00882352
:1000E00069F025B381E090E00090680002C0880FBD
:1000F000991F0A94E2F78095822385BB0895B89AE8
:1001000020E040E757E103C0CA010197F1F7215011
:10011000D9F7B898E6D02AE088E190E00FB6F894D5
:10012000A89581BD0FBE21BD789408951F920F92AE
:100130000FB60F9211248F93F89482E382BF8091BF
:100140007C00815080937C0080917C00882309F49E
:1001500013BE78948F910F900FBE0F901F9018953B
:10016000789480937C0082E382BF83B7836083BFEF
:1001700089B7816089BF80917C008823E1F7089569
:10018000789480937C0082E382BF83B7836083BFCF
:1001900089B7816089BF089580917D00883720F4F8
:1001A0008F5F80937D00089510927D0070916C00A8
:1001B00060E041E050E0AFEF70C0E62FF0E0EE0FFE
:1001C000FF1FEE0FFF1FE05AFF4F9181992309F4A3
:1001D00059C09F3F49F425B3CA01008002C0880F6F
:1001E000991F0A94E2F73DC09230A1F425B3CA01E9
:1001F000008002C0880F991F0A94E2F7982F282BDD
:1002000025BB82818823D9F585B39095982395BB2A
:10021000A18342C09130A1F485B39A01008002C04D
:10022000220F331F0A94E2F7922F9095982395BBE3
:100230008281882321F585B3282B25BB11822CC010
:1002400082818823E1F4928383819081882369F4F9
:10025000A38325B3FA0102C0EE0FFF1F9A95E2F7C0
:10026000CF018095822385BB17C0138225B3FA0185
:1002700002C0EE0FFF1F9A95E2F7CF010BC081502D
:1002800082830AC025B3CA01008002C0880F991F6B
:100290000A94E2F7282B25BB6F5F671708F48DCF10
:1002A000089560916C0090E041E050E013C084B389
:1002B000E92FF0E0EE0FFF1FEE0FFF1FE05AFF4F98
:1002C0009A01008002C0220F331F0A94E2F7822BAA
:1002D00084BB9F5F961758F388E780937D005CDFAF
:1002E000089585B7836085BF8BB780648BBF089501
:1002F0001F93CF93DF9360918E00635067FDB5C06D
:1003000080918B00CCE0D0E0C81BD109CE56DF4FE6
:1003100080918A008D3209F090C0683009F09FC04A
:1003200083EC80937E008AE580936D0010927400C8
:100330008881807649F0CE0150D29C018FEF2F3F0B
:10034000380709F466C06EC09A81109287008981CF
:10035000882321F41092880082E052C0853019F47D
:1003600090938F004CC08630D9F58B81813019F481
:1003700080E690E004C0823049F482E790E09093F8
:100380008D0080938C0022E130E025C0833009F598
:10039000992349F486E290E090938D0080938C003D
:1003A00024E030E018C0913049F48AE290E0909364
:1003B0008D0080938C002CE130E00DC0923049F428
:1003C00086E490E090938D0080938C002AE130E0E9
:1003D00002C020E030E080E480937400822F16C0D9
:1003E000883021F481E021E930E00CC0893019F433
:1003F0009093910004C08A3011F481E001C080E044
:1004000027E830E030938D0020938C00282F30E0D7
:1004100009C0888187FF02C02E813F8180E88093D8
:10042000740005C08E819F818217930708F0C9016F
:1004300090936F0080936E0012C08091740087FFCC
:100440000EC0CE0127D28F3F21F48EE180936D0044
:1004500006C0882321F010926F0010926E008091E8
:100460008E00181614F410928E0080916D0084FF97
:1004700060C080916E0090916F00EFEF8F3F9E07FC
:1004800009F457C09C018930910510F028E030E054
:10049000821B930B90936F0080936E0080917E007F
:1004A00098E8892780937E00122F222391F1609192
:1004B0008C0070918D008091740086FF13C09B01A9
:1004C000CFE7D0E01150412F50E01F5FDA01A05874
:1004D000BF4FF901849189932F5F3F4FCA17DB0704
:1004E000C1F70FC0DB01EFE7F0E01150412F50E002
:1004F0001F5F9A0120583F4F8D918193E217F307B8
:10050000D9F7CA010196860F971F90938D008093AB
:100510008C008FE790E0612F2FD0612F6C5F6C30E3
:1005200031F08FEF9FEF90936F0080936E00609398
:100530006D0094E186B3837031F49150D9F7109235
:100540008F0010928900DF91CF911F910895A82FFD
:10055000B92F80E090E041E050EA60956F5F58F479
:100560002D9138EF82279795879510F0842795274E
:100570003F5FC8F3F3CF0895EADF8D939D9308950D
:10058000CF93CFB7CF93C395B09BE9F7B09B09C08A
:10059000B09B07C0B09B05C0B09B03C0B09B01C01F
:1005A000A1C0DF93C0918B00DD27CE56DF4FB09BFB
:1005B00002C0DF91EBCF2F930F931F9306B32FEF62
:1005C00000FB20F94F933F9316B34FEF012700FB39
:1005D00021F93BE031C04E7F012F16B3216028C0C6
:1005E000102F4D7F2260000006B329C04B7F24608E
:1005F000012F000016B32BC016B3477F28602AC016
:100600004F7E06B320612CC04F7D16B320622FC0F1
:100610004F7B06B3206432C0422706B349934FEFA5
:100620000000102710FB20F916B31370C9F1297FC1
:1006300091F2012700FB21F906B3237F89F23150A3
:1006400058F1102710FB22F916B3277E79F2012703
:1006500000FB23F92F7C81F206B3102710FB24F94D
:100660002F7971F200C016B3012700FB25F92F7313
:1006700059F200C006B3102710FB26F9223040F2D1
:1006800000C016B3012700FB27F9243028F64F7766
:10069000206816B30000F9CF10E41ABF002717C076
:1006A0003B503195C31BD04010E41ABF0881033C76
:1006B000E9F00B34D9F0209189001981110F121340
:1006C000EDCF093641F10D3211F0013E39F70093BB
:1006D00090003F914F911F910F912F91DF91CAB7D9
:1006E000C6FD51CFCF91CFBFCF91189520919000EB
:1006F000222379F310918E00112311F5343012F179
:1007000030938E0020938A0010918B003BE0311BC8
:1007100030938B0017C000918E0001308CF40AE5F5
:1007200030916D0034FD10C000936D00CEE7D0E035
:100730000FC02795A8F45150A9F4220F0000F9CF5B
:100740004AE503C042ED01C0432FC4E1D0E032E0EE
:1007500017B31360C09A17BB08B320E413E05F938C
:10076000012756E008BB279520F4515021F4220FB1
:10077000F9CF012756E000003B5A08BBD0F227957D
:1007800028F4515029F4220F0000F9CF012756E038
:10079000279508BB20F4515021F4220FF9CF0127EF
:1007A00056E02991332308BB21F60C7F10918F006E
:1007B000110FC651D04008BB11F01093890010E40E
:1007C0001ABF016017B31C7F402F4C7F5F9100C0A0
:1007D00000C008BB17BB48BB7CCFFC0181818E3FAA
:1007E00061F48CE08093A80088EA90E090938D00FB
:1007F00080938C0021E030E036C08E3159F4F894BB
:1008000028E088E190E00FB6F894A89581BD0FBE6E
:1008100021BDFFCF8035B1F41092D9031092D803D7
:10082000868197819093B5008093B4008152934064
:1008300030F080E293E09093B5008093B4002FEF06
:100840003FEF11C0813519F020E030E00CC08091FD
:1008500072009091730090938D0080938C00209192
:10086000770030917800C901089549DC91D0E6EB1A
:10087000F0E0119283E0E83DF807D9F71092760096
:1008800010927500109278001092770010927B0001
:1008900021DCFECFCF93DF93EC012091B4003091A7
:1008A000B500862F90E02817390708F4622F70E012
:1008B000261B370B3093B5002093B4008091750050
:1008C00090917600892B19F040E050E039C0888182
:1008D0009981909376008093750042E050E016C0B5
:1008E0008091D8039091D903E0917000F09171004C
:1008F000E80FF91FDE01A40FB51F2C91208301968C
:100900009093D9038093D8034F5F5F4F46175707E3
:1009100038F319C08091D8039091D903E091700009
:10092000F0917100E80FF91FDE01A40FB51F2C91A3
:10093000208301969093D9038093D8034F5F5F4F34
:100940004617570738F38091B4009091B500892B72
:1009500011F080E01AC060917500709176004091AE
:100960007200509173002091790030917A0080914B
:100970007000909171007ED2909378008093770000
:10098000109276001092750081E0DF91CF9108956A
:1009900087B38C6187BB81B3836081BB82B3836083
:1009A00082BB08958F929F92AF92BF92CF92DF92B7
:1009B000EF92FF920F931F93CF93DF935A016C0135
:1009C00020E08824992440E050E0A1E0B0E093E0EA
:1009D000E92EF12C02E010E0E601E88188B39E2FB9
:1009E0009370990F990F837F982B98BBC49A00003E
:1009F000C49886B32695880F880F8078282BA61771
:100A0000B70708F058C088B39E2F96959695EC705E
:100A1000837FE82BE8BBC49A0000C49886B3269570
:100A2000880F880F8078282B0617170710F0D80139
:100A300042C088B3392F369536959C70837F982BAA
:100A400098BBC49A0000C49886B32695880F880F77
:100A50008078282BE616F70610F0D7012CC088B353
:100A60003C70837F382B38BBC49A0000C49886B38F
:100A70002695880F880F8078282B4C5F5F4FCA011E
:100A800087709070892B41F4F501E80DF91D2083E2
:100A90000894811C911C20E014960894C11CD11C60
:100AA000E4E0F0E0EE0EFF1E0C5F1F4F4617570705
:100AB00008F492CFDA01FD01E770F070309771F021
:100AC0008A0C9B1C30E088E090E08E1B9F0B02C0DC
:100AD000359527958A95E2F7E4012883695F7F4F72
:100AE00083E0769567958A95E1F7862FDF91CF9120
:100AF0001F910F91FF90EF90DF90CF90BF90AF903C
:100B00009F908F9008956F927F928F929F92AF9255
:100B1000BF92CF92DF92EF92FF920F931F93CF93EA
:100B2000DF934A01D9015C0120E06624772400E0CC
:100B300010E041E050E0E3E0CE2ED12C32E0E32E95
:100B4000F12CE501E88188B39E2F9370990F990FDE
:100B5000837F982B98BBC49ACD010197F1F7C49875
:100B6000CD010197F1F786B32695880F880F80781D
:100B7000282B4617570708F068C088B33E2F3695D4
:100B80003695EC70837FE82BE8BBC49ACD010197C2
:100B9000F1F7C498CD010197F1F786B32695880F38
:100BA000880F8078282BE616F70610F0A7014DC0B5
:100BB00088B3E32FE695E6953C70837F382B38BBEE
:100BC000C49ACD010197F1F7C498CD010197F1F7CF
:100BD00086B32695880F880F8078282BC616D706EF
:100BE00010F0A60132C088B3EC70837FE82BE8BB1D
:100BF000C49ACD010197F1F7C498CD010197F1F79F
:100C000086B32695880F880F8078282B0C5F1F4F9E
:100C1000C80187709070892B41F4F401E60DF71D2F
:100C200020830894611C711C20E04C5F5F4F089486
:100C3000A11CB11CE4E0F0E0CE0EDF1EEE0EFF1EA4
:100C40000617170708F47DCFA801FA01E770F070C6
:100C5000309771F0680C791C30E088E090E08E1BD2
:100C60009F0B02C0359527958A95E2F7E30128830B
:100C7000695F7F4F23E0769567952A95E1F7862F88
:100C8000DF91CF911F910F91FF90EF90DF90CF9068
:100C9000BF90AF909F908F907F906F9008956F92CC
:100CA0007F928F929F92AF92BF92CF92DF92EF92FC
:100CB000FF920F931F93CF93DF934A01D9015C01F9
:100CC00020E000E010E06624772441E050E093E06B
:100CD000C92ED12C82E0E82EF12CE501E88188B301
:100CE0009E2F9370990F990F837F982B98BBC49A6E
:100CF000CD010197F1F7C498CD010197F1F786B3C3
:100D00002695880F880F8078282B4617570708F0FC
:100D100069C088B33E2F36953695EC70837FE82BFB
:100D2000E8BBC49ACD010197F1F7C498CD010197B2
:100D3000F1F786B32695880F880F8078282BE61662
:100D4000F70610F0A7014EC088B3E32FE695E695AD
:100D50003C70837F382B38BBC49ACD010197F1F7E3
:100D6000C498CD010197F1F786B32695880F880FB7
:100D70008078282BC616D70610F0A60133C088B39A
:100D8000EC70837FE82BE8BBC49ACD010197F1F7A3
:100D9000C498CD010197F1F786B32695880F880F87
:100DA0008078282BE4E0F0E06E0E7F1EC301877090
:100DB0009070892B39F4F401E00FF11F20830F5F4D
:100DC0001F4F20E04C5F5F4F0894A11CB11C84E0D2
:100DD00090E0C80ED91EE80EF91E6616770608F4D4
:100DE0007CCFA301FA01E370F070309781F0080D19
:100DF000191D30E084E090E08E1B9F0B880F991F37
:100E000002C0359527958A95E2F7E80128836D5F42
:100E10007F4F7695679576956795862FDF91CF9171
:100E20001F910F91FF90EF90DF90CF90BF90AF9008
:100E30009F908F907F906F90089596B380B3881F96
:100E40008827881F880F929596959170892B089511
:100E500092B39E7F982B92BB089592B3880F9D7F8B
:100E6000982B92BB089592B39C7F982B660F962B7C
:100E700092BB0895CF93DF93EC01DA016115710500
:100E800009F47AC061507040E8818E2F90E0AC0187
:100E90004F7050704330510509F444C0443051053F
:100EA0005CF44130510509F44FC0423051050CF05B
:100EB00045C0452B69F060C04530510509F44AC072
:100EC00045305105F4F04630510509F055C043C096
:100ED000660F771F660F771F807F31F06450704078
:100EE000E295EF706E0F711DCE010196211531054F
:100EF00019F0AD0108DE02C0AD0154DD282F30E04D
:100F00003DC0660F771F660F771F807F31F06450FA
:100F10007040E295EF706E0F711DCE010196AD012C
:100F2000BEDEECCF96B380B3881F8827881F880F5A
:100F3000929596959170892B8C931BC092B3898161
:100F40008170880F9D7F04C092B3898181709E7FDC
:100F5000892B0DC01C92898192B3282F30E03695E1
:100F6000279521709C7F292B8170880F822B82BB53
:100F70001C9221E030E002C020E030E0C901DF91A6
:080F8000CF910895F894FFCF12
:100F8800040000000300000005000000035AFFFFF2
:040F9800B800B600E7
:00000001FF
