:1000000057C0C6C270C06FC06EC06DC06CC06BC040
:100010006AC006C468C067C066C065C064C063C00B
:1000200062C061C060C00403090420037700770048
:1000300077002E0075006C006C00690068006F008E
:100040006D0065002E00640065001003410056003D
:1000500052002D004900530050001201010102001E
:100060000008C016E1050001010200010902430079
:10007000020100803C090400000102020100052485
:1000800000100104240202052406000105240103D6
:10009000010705830308006409040100020A000047
:1000A00000070501020100000705810208000000A9
:1000B00011241FBECFE5D4E0DEBFCDBF10E0A0E627
:1000C000B0E0E6E5FCE002C005900D92A238B10771
:1000D000D9F711E0A2E8B0E001C01D92AD36B1073A
:1000E000E1F792D5B6C58CCFFF920F931F93809105
:1000F0008500883720F48F5F809385009AC0109226
:1001000085000091800010E061E070E0FF24FA9427
:100110008DC0412F50E0DA01AA0FBB1FAA0FBB1FF1
:10012000AC58BF4F11969C911197992309F473C055
:100130009F3F49F425B3CB010C9002C0880F991F53
:100140000A94E2F756C09230E9F425B3CB010C9043
:1001500002C0880F991F0A94E2F7982F282B25BB1D
:10016000FA01EE0FFF1FEE0FFF1FEA58FF4F8081CD
:10017000882309F04DC085B39095982395BB1196BF
:10018000FC9253C0440F551F9130D1F485B39B01AD
:100190000C9002C0220F331F0A94E2F7922F909521
:1001A000982395BBFA01EE0FFF1FEA58FF4F80819D
:1001B000882371F585B3282B25BB11961C9235C079
:1001C000FA01EE0FFF1FEA58FF4F8081882301F5E7
:1001D000908313968C9113979C91882371F41396B6
:1001E000FC9225B3AB0102C0440F551F9A95E2F76C
:1001F000CA018095822385BB18C013961C9225B333
:10020000AB0102C0440F551F9A95E2F7CA010BC01B
:10021000815080830AC025B3CB010C9002C0880FA7
:10022000991F0A94E2F7282B25BB1F5F101708F4CB
:1002300070CF1F910F91FF9008956091800090E022
:1002400041E050E013C084B3E92FF0E0EE0FFF1F50
:10025000EE0FFF1FEC58FF4F9A01008002C0220FE3
:10026000331F0A94E2F7822B84BB9F5F961758F3E3
:1002700088E78093850038DF089585B7836085BF60
:100280008BB780648BBF8BE4809392008093BD001A
:100290008AE5809391008093BC0008951F93DC0150
:1002A000162F8091BC0084FF07C08091BD0098E8A4
:1002B00089278093BD0003C08AE58093BC00912FFD
:1002C000EEEBF0E08D91819391501916DCF3612FE4
:1002D0008EEB90E059D11C5F1093BC001F910895E4
:1002E0001F93DC01162F8091910084FF07C080913D
:1002F000920098E889278093920003C08AE5809352
:100300009100912FE3E9F0E08D91819391501916BE
:10031000DCF3612F83E990E037D11C5F10939100EB
:100320001F9108951F93CF93DF936091A2006350B4
:1003300067FDABC080919F00CCE0D0E0C81BD10925
:10034000CA55DF4F80919E00803118F4CE01D2D281
:1003500096C08D3209F083C0683009F090C083ECFC
:10036000809386008AE580936000109282008881E5
:10037000807621F0CE019AD2282F5EC09A81109209
:100380008F008981882321F41092900022E04DC0D3
:10039000853019F49093A30047C0863079F58B819E
:1003A000813011F0823021F4CE0170D2282F22C08A
:1003B0008330F9F48A81882341F486E290E09093B7
:1003C000A1008093A00024E015C0813041F48AE2AE
:1003D00090E09093A1008093A00020E20BC08230B7
:1003E00041F48AE490E09093A1008093A00020E182
:1003F00001C020E080E4809382001EC0883021F498
:1004000021E085EA90E013C0893019F49093A500AB
:100410000BC08A3011F421E008C08B3029F48BE442
:10042000809392008093BD0020E08FE890E090934D
:10043000A1008093A00009C02F3F39F4888187FD77
:100440002E8180E88093820006C08F81882319F472
:100450008E81821708F0822F8093610010C08091F6
:10046000820087FF0CC0CE0100D38F3F21F48EE1C4
:100470008093600004C0882311F010926100809185
:10048000A200181614F41092A2008091600084FF5C
:1004900058C0809161008F3F09F453C0182F8930F4
:1004A00008F018E0811B809361008091860098E835
:1004B000892780938600112391F18091820087FF24
:1004C00008C0612F87E890E0E4D2182F893098F5B2
:1004D00026C02091A0003091A10086FF0DC0A7E8A2
:1004E000B0E080E090E0F901E80FF91FE491ED93AE
:1004F00001961817C1F708C0912FD901E7E8F0E07D
:100500008D9181939150E1F71150812F90E01F5F01
:100510000196820F931F9093A1008093A000612FFA
:1005200087E890E031D0612F6C5F6C3041F08FEF45
:100530008093610004C08FEF809361006EE160934F
:10054000600094E186B3837031F49150D9F7109232
:10055000A30010929D00DF91CF911F910895A82FC5
:10056000B92F80E090E041E050EA60956F5F58F469
:100570002D9138EF82279795879510F0842795273E
:100580003F5FC8F3F3CF0895EADF8D939D930895FD
:10059000CF93CFB7CF93C395B09BE9F7B09B09C07A
:1005A000B09B07C0B09B05C0B09B03C0B09B01C00F
:1005B000A6C0DF93C0919F00DD27CA55DF4FB09BD7
:1005C00002C0DF91EBCF2F930F931F9306B32FEF52
:1005D00000FB20F94F933F9316B34FEF012700FB29
:1005E00021F93BE031C04E7F012F16B3216028C0B6
:1005F000102F4D7F2260000006B329C04B7F24607E
:10060000012F000016B32BC016B3477F28602AC005
:100610004F7E06B320612CC04F7D16B320622FC0E1
:100620004F7B06B3206432C0422706B349934FEF95
:100630000000102710FB20F916B31370C9F1297FB1
:1006400091F2012700FB21F906B3237F89F2315093
:1006500058F1102710FB22F916B3277E79F20127F3
:1006600000FB23F92F7C81F206B3102710FB24F93D
:100670002F7971F200C016B3012700FB25F92F7303
:1006800059F200C006B3102710FB26F9223040F2C1
:1006900000C016B3012700FB27F9243028F64F7756
:1006A000206816B30000F9CF10E41ABF00271CC061
:1006B0003B503195C31BD04010E41ABF0881033C66
:1006C00011F10B3401F120919D001981110F1213CA
:1006D000EDCF4A81441F093659F10D3211F0013E28
:1006E00029F74F7009F0042F0093A4003F914F9118
:1006F0001F910F912F91DF91CAB7C6FD4CCFCF91BB
:10070000CFBFCF9118952091A400222379F31091A7
:10071000A2001123C1F53430C2F13093A20020931E
:100720009E0010919F003BE0311B30939F002DC035
:100730000091A20001303CF50AE54F7049F4309178
:10074000600034FD24C000936000C6E8D0E023C000
:10075000433049F03091910034FD19C0009391006D
:10076000C2E9D0E018C03091BC0034FD10C0009345
:10077000BC00CDEBD0E00FC02795A8F45150A9F4F0
:10078000220F0000F9CF4AE503C042ED01C0432F1C
:10079000C4E1D0E032E017B31360C09A17BB08B3CE
:1007A00020E413E05F93012756E008BB279520F46F
:1007B000515021F4220FF9CF012756E000003B5A97
:1007C00008BBD0F2279528F4515029F4220F0000DD
:1007D000F9CF012756E0279508BB20F4515021F4AA
:1007E000220FF9CF012756E02991332308BB21F6C8
:1007F0000C7F1091A300110FC651D04008BB11F01F
:1008000010939D0010E41ABF016017B31C7F402FA6
:100810004C7F5F9100C000C008BB17BB48BB66CFD0
:100820001F920F920FB60F9211248F93F89482E3C8
:1008300082BF8091C80081508093C8008091C80019
:10084000882309F413BE78948F910F900FBE0F90F8
:100850001F90189578948093C80082E382BF83B775
:10086000836083BF89B7816089BF8091C800882376
:10087000E1F7089578948093C80082E382BF83B73C
:10088000836083BF89B7816089BF0895FC0183813C
:10089000813021F42AE530E082E103C02CE630E02B
:1008A00083E43093A1002093A0000895FC0180818F
:1008B0008076803271F49181892F8052823010F4D9
:1008C0008FEF0895923229F482E08093830080E0D4
:1008D000089580E008958091650190916601892BCB
:1008E00019F420E031E004C083E691E0E8D09C01F7
:1008F000C90108951F93CF93DF93EC01162F05C014
:1009000063E671E0899100D111501123C9F7DF919D
:10091000CF911F910895CF93DF9304DD80919100D3
:1009200084FF1EC06091D9007091DA0061157105D5
:1009300021F480917300882381F08091DD009091F3
:10094000DE00CEDC109273008091D9009091DA0025
:10095000089719F481E08093730087ED90E0A3D0AD
:10096000E0916101F0916201309709F00995809161
:10097000650190916601892B59F0C091D300D09107
:10098000D400209729F083E691E099D0FE010995E3
:10099000E091C900F091CA00309709F00995909153
:1009A00083009923D1F08091BC0084FF16C092305F
:1009B00021F468E089E690E003C062E081E790E01E
:1009C0006DDC80918300815080938300E091DF0093
:1009D000F091E000309709F00995DF91CF910895EB
:1009E00067ED70E091D001C096DF8091D9009091C1
:1009F000DA000897C9F30895CF93DF93EC0101C0A3
:100A0000EFDFFE01219684918823D1F7DF91CF910A
:100A10000895CF93DF93EC0102C02196E1DF888136
:100A20008823D9F7DF91CF9108951F9340E850E0D4
:100A300061EE70E083E691E03CD048E050E06BEC82
:100A400070E087ED90E035D0B89A10E003C082E006
:100A500090E000DF1150D9F7B89860E080E090E0B6
:100A60003FDC0BDC78941F9108952BE420939200D7
:100A7000A2E6B0E0FC0187E001900D928150E1F721
:100A8000E091D500F091D600309709F0099581E00A
:100A90000895DC01E2E6F0E087E001900D928150DC
:100AA000E1F787E00895FC0110821182138212821F
:100AB0000895FC0177836683558344830895FC0180
:100AC00082819381892B19F42FEF3FEF1BC0408166
:100AD000842F90E00196248135818217930711F4C9
:100AE00080E002C0842F8F5F808382819381019791
:100AF000938382830680F781E02DE40FF11D8081CE
:100B0000282F30E0C9010895DB0111969C911197BF
:100B10001696ED91FC911797E90FF11D80831196C0
:100B20004C911197842F90E0019614962D913C9151
:100B300015978217930711F480E002C0842F8F5F0E
:100B400011968C93119712968D919C911397019603
:100B500013969C938E9312970895982F8AE0809312
:100B60007E0022E020937D0080918400882321F480
:100B7000923661F581E018C0813029F49F3631F555
:100B8000209384000895823021F49F36F9F483E0A5
:100B90000BC0833021F49437C9F484E005C084305D
:100BA00031F49D3099F485E0809384000895853078
:100BB00069F49D3059F4F89428E088E190E00FB68C
:100BC000F894A89581BD0FBE21BDFFCF109284007F
:100BD00008958DEA95E09093D4008093D30010920D
:100BE0007D0008958FEF80937D0080E187BB80E4D6
:100BF0008DB90895779B05C002C08FB1F1DE77995A
:100C0000FCCF89DE71DA0895AA9A909A8F9A979A02
:100C10008FEF8093750011DB8AEF1CDE8AEF1ADEFE
:100C20008AEF18DE8DEA95E09093D4008093D3008C
:100C3000FCDE1092750089EE95E09093E0008093C1
:100C4000DF0082EF95E09093D6008093D500D2DF4D
:060C5000FECFF894FFCF77
:100C56005AFF80250000000008A1200000000002C5
:100C6600000300010400000003000000050000006E
:020C7600030079
:00000001FF
