:100000007DC041C396C095C094C093C092C091C0BA
:1000100090C02FCA8EC03AC18CC08BC08AC089C024
:1000200088C087C086C005C70EC743C7A4C9A3C977
:10003000D0C7A1C9A0C99FC900C89DC99CC99BC9F7
:100040009AC999C965C775C783C7F1C6EEC6F8C70F
:10005000F3C8A8C782C7A6C780C77FC77EC74BC9DA
:100060000403090420037700770077002E00750051
:100070006C006C00690068006F006D0065002E0068
:100080006400650018035500530042002000410041
:100090005600520020004C00610062001201010174
:1000A00002000008C016E10500010102000109027A
:1000B0004300020100802D0904000001020201003A
:1000C0000524001001042402020524060001052471
:1000D0000103010705830308006409040100020A03
:1000E0000000000705010201000007058102080069
:1000F000000853544B3530305F32000011241FBECE
:10010000CFE5D4E0DEBFCDBF10E0A0E6B0E0EAE589
:10011000F7E102C005900D92A238B107D9F712E0BD
:10012000A2E8B0E001C01D92A437B107E1F76ED09C
:1001300012CB66CF1092650010926100813021F4DD
:100140008FEF809365000895833019F482E38093E4
:10015000610008958130C9F490918100E199FECF4A
:1001600020E030E03FBB2EBBE09A8DB3981751F0F2
:10017000E199FECF3FBB2EBB9DBB0FB6F894E29A30
:10018000E19A0FBE1092650008958091850010924B
:10019000650010926100813021F48FEF809365003B
:1001A0000895833019F482E38093610008958EE608
:1001B00091E090938F0080938E00109269000895D3
:1001C0008FEF809369003091700020E080916F0084
:1001D000280F311D40E050E084E0220F331F441F00
:1001E000551F8A95D1F760E07BE187EB90E091DACB
:1001F000215030401AB830BD29B988E98AB908952C
:10020000CFD30895CDD3ACD46AD90895AA9A909A41
:10021000E199FECF80E090E09FBB8EBBE09A8DB36A
:10022000809381008150873018F082E080938100B4
:1002300064D58FEF80936100D7D98AEF34D98AEFE4
:1002400032D98AEF30D98EE691E090938F00809377
:100250008E0030D48AE990E090938D0080938C00DA
:100260008AEA90E09093930080939200109261004C
:1002700087ED90E0909395008093940080EE90E05D
:100280009093910080939000BDDFFECF1F920F925C
:100290000FB60F9211242F933F934F935F936F9359
:1002A0007F938F939F93AF93BF93EF93FF9380912F
:1002B0007102823011F48CB1D8D3FF91EF91BF91CC
:1002C000AF919F918F917F916F915F914F913F91EE
:1002D0002F910F900FBE0F901F9018951F93182FFE
:1002E0008AE080936A0082E08093690090917102B5
:1002F0009230A1F580918200882321F4123661F5B5
:1003000081E00CC0813029F41F3631F590938200D2
:1003100025C0823031F41F36F9F483E080938200E7
:100320001DC0833021F41437B9F484E0F7CF843052
:1003300021F41D3089F485E0F1CF853069F41D305A
:1003400059F4F89428E088E190E00FB6F894A89565
:1003500081BD0FBE21BDFFCF10928200812F1DD81D
:1003600080917102823019F45D9BFECF1CB91F9100
:10037000089585B7836085BF8BB780648BBF8BE49E
:100380008093A4008093CF008AE58093A30080939C
:10039000CE0008951F93DC01162F8091CE0084FFBC
:1003A00007C08091CF0098E889278093CF0003C0D1
:1003B0008AE58093CE00912FE0EDF0E08D9181935E
:1003C00091501916DCF380ED90E0612F58D11C5F3D
:1003D0001093CE001F9108951F93DC01162F80917A
:1003E000A30084FF07C08091A40098E88927809328
:1003F000A40003C08AE58093A300912FE5EAF0E012
:100400008D91819391501916DCF385EA90E0612F6C
:1004100036D11C5F1093A3001F9108951F93CF93B3
:10042000DF936091B400635067FDAAC08091B10072
:10043000CCE0D0E0C81BD109C854DF4F8091B00098
:10044000803118F4CE019BD295C08D3209F082C064
:10045000683009F08FC083EC809398008AE5809320
:100460006D00109283008881807621F0CE0163D2E6
:10047000282F5DC09A811092A1008981882321F4E0
:100480001092A20022E04CC0853019F49093B50080
:1004900046C0863071F58B81813011F0823021F4B5
:1004A000CE0139D2282F21C08330F1F4992341F4B1
:1004B00080E690E09093B3008093B20024E015C0F2
:1004C000913041F484E690E09093B3008093B200C1
:1004D00020E20BC0923041F484E890E09093B300A6
:1004E0008093B20028E101C020E080E48093830083
:1004F0001EC0883021F421E087EB90E013C08930E2
:1005000019F49093B7000BC08A3011F421E008C0B1
:100510008B3029F48BE48093A4008093CF0020E0FB
:1005200081EA90E09093B3008093B20009C02F3F1E
:1005300039F4888187FD2E8180E88093830006C08E
:100540008F81882319F48E81821708F0822F80937F
:100550006E0010C08091830087FF0CC0CE01CAD20C
:100560008F3F21F48EE180936D0004C0882311F049
:1005700010926E008091B400181614F41092B4001A
:1005800080916D0084FF58C080916E008F3F09F408
:1005900053C0182F893008F018E0811B80936E003B
:1005A0008091980098E8892780939800112391F111
:1005B0008091830087FF08C089E990E0612FAED267
:1005C000182F893098F526C02091B2003091B300E1
:1005D00086FF0DC0A9E9B0E080E090E0F901E80FE6
:1005E000F91FE491ED9301961817C1F708C0912FF8
:1005F000D901E9E9F0E08D9181939150E1F7115033
:10060000812F90E01F5F0196820F931F9093B3009C
:100610008093B20089E990E0612F31D0612F6C5F47
:100620006C3041F08FEF80936E0004C08FEF8093A9
:100630006E006EE160936D0094E186B3837031F4D7
:100640009150D9F71092B5001092AF00DF91CF9181
:100650001F910895A82FB92F80E090E041E050EA63
:1006600060956F5F58F42D9138EF822797958795A5
:1006700010F0842795273F5FC8F3F3CF0895EADF92
:100680008D939D930895CF93CFB7CF93C395B09B90
:10069000E9F7B09B09C0B09B07C0B09B05C0B09BF9
:1006A00003C0B09B01C0A6C0DF93C091B100DD279D
:1006B000C854DF4FB09B02C0DF91EBCF2F930F9355
:1006C0001F9306B32FEF00FB20F94F933F9316B310
:1006D0004FEF012700FB21F93BE031C04E7F012F96
:1006E00016B3216028C0102F4D7F2260000006B392
:1006F00029C04B7F2460012F000016B32BC016B316
:10070000477F28602AC04F7E06B320612CC04F7DF2
:1007100016B320622FC04F7B06B3206432C042273D
:1007200006B349934FEF0000102710FB20F916B3D2
:100730001370C9F1297F91F2012700FB21F906B35B
:10074000237F89F2315058F1102710FB22F916B39C
:10075000277E79F2012700FB23F92F7C81F206B373
:10076000102710FB24F92F7971F200C016B301276E
:1007700000FB25F92F7359F200C006B3102710FBB8
:1007800026F9223040F200C016B3012700FB27F9FA
:10079000243028F64F77206816B30000F9CF10E414
:1007A0001ABF00271CC03B503195C31BD04010E43A
:1007B0001ABF0881033C11F10B3401F12091AF0005
:1007C0001981110F1213EDCF4A81441F093659F1D7
:1007D0000D3211F0013E29F74F7009F0042F0093FC
:1007E000B6003F914F911F910F912F91DF91CAB7A2
:1007F000C6FD4CCFCF91CFBFCF9118952091B600B9
:10080000222379F31091B4001123C1F53430C2F1E1
:100810003093B4002093B0001091B1003BE0311B45
:100820003093B1002DC00091B40001303CF50AE5D1
:100830004F7049F430916D0034FD24C000936D0079
:10084000C8E9D0E023C0433049F03091A30034FD23
:1008500019C00093A300C4EAD0E018C03091CE00C4
:1008600034FD10C00093CE00CFECD0E00FC0279530
:10087000A8F45150A9F4220F0000F9CF4AE503C0B3
:1008800042ED01C0432FC4E1D0E032E017B3136062
:10089000C09A17BB08B320E413E05F93012756E02A
:1008A00008BB279520F4515021F4220FF9CF0127DE
:1008B00056E000003B5A08BBD0F2279528F451506F
:1008C00029F4220F0000F9CF012756E0279508BB35
:1008D00020F4515021F4220FF9CF012756E029913D
:1008E000332308BB21F60C7F1091B500110FC651C0
:1008F000D04008BB11F01093AF0010E41ABF0160A4
:1009000017B31C7F402F4C7F5F9100C000C008BB15
:1009100017BB48BB66CFFC018381813021F42CE9F1
:1009200030E082E103C02EEA30E083E43093B3008C
:100930002093B2000895FC0180818076803271F4AA
:100940009181892F8052823010F48FEF0895923276
:1009500029F482E08093840080E0089580E0089587
:1009600080912C0190912D01892B19F420E031E028
:1009700004C08AE291E064D69C01C90108951F93E6
:10098000CF93DF93EC01162F05C089916AE271E0E5
:100990007CD611501123C9F7DF91CF911F91089593
:1009A000CF93DF933BDD8091A30084FF1EC0609155
:1009B000E4007091E5006115710521F480918000DB
:1009C000882381F08091E8009091E90005DD109284
:1009D00080008091E4009091E500089719F481E08F
:1009E0008093800082EE90E01FD6E0919600F09117
:1009F0009700309709F0099580912C0190912D0175
:100A0000892B59F0C0918E00D0918F00209729F04A
:100A10008AE291E015D6FE010995E0918A00F091F5
:100A20008B00309709F00995909184009923D1F0BB
:100A30008091CE0084FF16C0923021F486E790E0CA
:100A400068E003C08EE790E062E0A4DC809184005F
:100A5000815080938400E0919400F091950030974C
:100A600009F00995DF91CF91089562EE70E00DD6FF
:100A700001C096DF8091E4009091E5000897C9F3EA
:100A80000895CF93DF93EC0101C0EFDFFE012196C3
:100A900084918823D1F7DF91CF910895CF93DF938D
:100AA000EC0102C02196E1DF88818823D9F7DF912C
:100AB000CF9108951F938AE291E06AEE70E040E4DE
:100AC00050E0B8D582EE90E06AED70E048E050E08A
:100AD000B1D5B89A10E003C082E090E0E4D41150A0
:100AE000D9F7B89880E090E060E076DC42DC78945A
:100AF0001F9108952BE42093A400AFE6B0E0FC0121
:100B000087E001900D928150E1F7E0919000F09123
:100B10009100309709F0099581E00895DC01EFE636
:100B2000F0E087E001900D928150E1F787E00895B1
:100B3000A99883E886B981E087B987B1806C87B9C5
:100B4000369A3699FECF84B195B1369A3699FECF52
:100B500084B195B106966CE070E0C7D5862F0895F4
:100B60001F93E6DF8C3110F011E009C0E1DF853121
:100B700028F0DEDF8B3110F413E001C012E0809129
:100B80008500181751F0E0918C00F0918D0030979E
:100B900011F0812F0995109385001F910895C59A32
:100BA00082ED90E0FC013197F1F7C5980197F1F7DC
:100BB0000895843091F0853028F4823051F08330EC
:100BC000D1F409C0863079F0863048F0873099F446
:100BD0000FC083E505C082E503C082E505C081E55D
:100BE0008DB91EB8089581E58DB981E08EB908955B
:100BF00080E58DB91EB8089587B3837D87BB88B320
:100C0000837D88BB1DB80895282F90918100913075
:100C1000C9F480E090E042ED50E027FF02C0C39AA3
:100C200001C0C398880FB4998F5FC59AFA013197B4
:100C3000F1F7C598FA013197F1F79F5F983051F0BD
:100C4000220FEBCF992311F481E008958FB9779BA0
:100C5000FECF8FB108950F931F93CF93DF9300E8DA
:100C6000C2EDD0E019C08CEACFDF83E5CDDF80E0B4
:100C7000CBDF182F80E0C8DF133511F480E00FC000
:100C80001DB8C59ACE010197F1F7C598CE0101971D
:100C9000F1F7809181008DDF015028F781E0DF912D
:100CA000CF911F910F9108958CEAAEDF80E8ACDF01
:100CB00080E0AADF80E0A8DF089580EFA5DF80E074
:100CC000A3DF80E0A1DF80E09FDF8170089587B31C
:100CD0008C6287BBC59A85E090E0E5D3C298C59841
:100CE0008EEF91E0FC013197F1F7C29A0197F1F78D
:100CF000C298809181005DDF089582E08093710247
:100D0000E199FECF81E090E09FBB8EBBE09A8DB36E
:100D100080936002E199FECF82E090E09FBB8EBBA2
:100D2000E09A8DB380936102809160028B3030F045
:100D300082E0809360028AE08093610281E0809388
:100D40005F02089520916002E199FECF81E090E07A
:100D50009FBB8EBB2DBB0FB6F894E29AE19A0FBEF3
:100D600020916102E199FECF82E090E09FBB8EBBB3
:100D70002DBB0FB6F894E29AE19A0FBE0895CF9377
:100D8000DF938BE18093360180916F029091700226
:100D900090933801809339012EE020933A01069612
:100DA0009093700280936F029C0121503040E6E3E3
:100DB000F1E090E004C08191982721503040211546
:100DC0003105C9F79083C6E3D1E002C089914DDEB9
:100DD00080916F02909170020197909370028093BE
:100DE0006F02019699F7DF91CF9108957F928F92CC
:100DF0009F92AF92BF92CF92DF92EF92FF920F93AA
:100E00001F93CF93DF9382E090E0909370028093E2
:100E10006F0280913B0190E0FC013197ED31F105CB
:100E200008F0A9C2ED5EFF4F0994DD2407C200E07F
:100E300008C18DE391E061EF70E050D410923C0165
:100E40008BE090E0C1C080913C0190913D01E82F82
:100E5000F0E0EF71F070E15BFD4F9083883909F0AD
:100E6000ECC0923079F0933028F4992381F09130DE
:100E700089F40BC09C3421F09E3F11F0933051F463
:100E800081E006C09093810005C084E001C086E047
:100E90008093810020918100E199FECF80E090E075
:100EA0009FBB8EBB2DBB0FB6F894E29AE19A0FBEA2
:100EB000C4C080913C018839C9F48091810086309A
:100EC00038F4843060F4813031F08130A0F005C016
:100ED000883088F408C08EE303C082E001C081E05E
:100EE0008093670208C01092670205C0843919F424
:100EF0001FDE80936302E0913C01F0E0EF71F0703F
:100F0000E15BFD4F808180933D0110923C015AC00E
:100F1000E0919200F0919300309711F081E00995F3
:100F200081E080937102D3DE96DE882309F023C22C
:100F300084C062DE10923C01E0919200F091930037
:100F4000309711F082E0099582E08093710216C219
:100F5000ABDE80913C01A7D270C00DE311E0C0E090
:100F6000D0E0FF2480913C0190E00197C817D90799
:100F700029F4F801808148DEF82E03C0F801808151
:100F800043DE21960F5F1F4FC430D10559F71092F1
:100F90003C01F0923D0110923E01D0937002C0934B
:100FA0006F02ECC180913C012FDE80913D012CDE6F
:100FB00080913E0129DE80913F0126DE10923C01A6
:100FC00010923D0183E090E09093700280936F0255
:100FD000D5C180913C0190E0A0E0B0E0BA2FA92FEC
:100FE000982F882720913D0130E040E050E0822B8F
:100FF000932BA42BB52BBA2FA92F982F882720919C
:101000003E0130E040E050E0822B932BA42BB52B27
:10101000BA2FA92F982F882720913F0130E040E078
:1010200050E0822B932BA42BB52B8093320190930D
:101030003301A0933401B093350110923C019EC15D
:1010400001E0A09032017090330190913C0180E06A
:1010500020913D01C22EDD24C82AD92A7CE3E72E47
:1010600071E0F72EC0E0D0E0BB244601089481086F
:101070009108DBC0C3FDD2D9002351F49E01217039
:10108000822F880F880F880F90914001892B02C012
:1010900080914001B9DD8091320190913301A0919E
:1010A0003401B0913501892F9A2FAB2FBB27ACDDCE
:1010B00080913201A9DDF7018185A6DD002311F4BD
:1010C000C0FF13C08091320190913301A09134018F
:1010D000B09135010196A11DB11D8093320190930D
:1010E0003301A0933401B093350180913E0180FD1E
:1010F00003C034E048E011C0C815D90508F491C018
:1011000087FF8FC0809141017FDD872D7DDD8A2D96
:101110007BDD80E079DD30E240E4002311F4C0FFA4
:1011200013C08091320190913301A0913401B091AC
:1011300035010197A109B1098093320190933301E0
:10114000A0933401B093350120913E019091430169
:10115000F7018185981709F420E03223A1F18091ED
:101160003F01B1D1909143019E012170122F110FC7
:10117000110F110F23C0002321F480914201812B14
:1011800002C08091420140DD809132019091330193
:10119000A0913401B0913501892F9A2FAB2FBB2735
:1011A00033DD8091320130DD80E02EDD982F80919B
:1011B0007202882319F440E8B42E1CC080914301C8
:1011C0009817C9F217C0242359F080913F017BD1B1
:1011D00003C024D98091720270DD8823D1F709C041
:1011E00080913F0170D101C019D98091720288238A
:1011F000D9F7BB24002311F4C0FF13C08091320142
:1012000090913301A0913401B09135010196A11D57
:10121000B11D8093320190933301A0933401B093B8
:10122000350121960894E11CF11CCC15DD0508F46C
:1012300021CFB0923C01A2C0DD24D39490913C0117
:1012400080E020913D018C01020F111DC0903E01F4
:101250003DE3E32E31E0F32EC0E0D0E03CC0D0D738
:10126000DD2041F4FE01E1708E2F880F880F880F7A
:101270008C2901C08C2DC8DC809132019091330102
:10128000A0913401B0913501892F9A2FAB2FBB2744
:10129000BBDC80913201B8DC80E0B6DCF7018083F2
:1012A000DD2011F4C0FF13C0809132019091330111
:1012B000A0913401B09135010196A11DB11D80931B
:1012C000320190933301A0933401B09335012196FC
:1012D0000894E11CF11CC017D10708F210923C01E0
:1012E000F801EA5CFE4F17820D5F1F4F10937002EA
:1012F00000936F0243C090913C01E0903D018091CA
:101300003E010CE311E0C0E0D0E0FF24F394C92ECD
:10131000DD24A82EBB2413C0CA15DB0550F0F8014C
:10132000838172DCEF2DF0E0EA5CFE4F8683F3945C
:1013300003C0F801838168DC21960F5F1F4FCC1535
:10134000DD0550F309C088815FDCEF2DF0E0EA5C39
:10135000FE4F8683F39403C0E601C15CDE4FFE14AA
:1013600090F310923C018E2D90E0FC01EA5CFE4F60
:101370001782039629CE80EC80933C0100DDDF913B
:10138000CF911F910F91FF90EF90DF90CF90BF9082
:10139000AF909F908F907F9008952091860030911C
:1013A00087002115310561F48B3109F061C080930C
:1013B000360181E090E09093870080938600089545
:1013C00091E02931390708F04FC0F901EA5CFE4F7E
:1013D0008083F9013196F0938700E0938600E43032
:1013E000F10581F49091380180E020913901820F5C
:1013F000911D069690938900809388008A519140B0
:10140000B8F105C0E530F10539F48E3089F110925C
:101410008700109286000895E530F10548F180912B
:10142000880090918900E817F90711F590E0A6E38C
:10143000B1E003C08D91982731973097D9F710927A
:10144000870010928600992311F4D0DC089580EB78
:1014500080933B0180933C0183E090E09093700285
:1014600080936F028CDC08951092870010928600A2
:1014700008951F920F920FB60F9211248F93F89434
:1014800082E382BF809172028150809372028091C8
:101490007202882309F413BE78948F910F900FBEC7
:1014A0000F901F90189578948093720282E382BF08
:1014B00083B7836083BF89B7816089BF80917202DF
:1014C0008823E1F7089578948093720282E382BFC3
:1014D00083B7836083BF89B7816089BF0895809196
:1014E0007302883720F48F5F8093730208951092FF
:1014F000730270916C0060E041E050E0AFEF70C0AB
:10150000E62FF0E0EE0FFF1FEE0FFF1FE05AFF4F38
:101510009181992309F459C09F3F49F425B3CA0129
:10152000008002C0880F991F0A94E2F73DC09230F4
:10153000A1F425B3CA01008002C0880F991F0A9444
:10154000E2F7982F282B25BB82818823D9F585B314
:101550009095982395BBA18342C09130A1F485B3A7
:101560009A01008002C0220F331F0A94E2F7922FE3
:101570009095982395BB8281882321F585B3282BEC
:1015800025BB11822CC082818823E1F49283838160
:101590009081882369F4A38325B3FA0102C0EE0F7A
:1015A000FF1F9A95E2F7CF018095822385BB17C074
:1015B000138225B3FA0102C0EE0FFF1F9A95E2F7DE
:1015C000CF010BC0815082830AC025B3CA010080BD
:1015D00002C0880F991F0A94E2F7282B25BB6F5F82
:1015E000671708F48DCF089560916C0090E041E09A
:1015F00050E013C084B3E92FF0E0EE0FFF1FEE0FB1
:10160000FF1FE05AFF4F9A01008002C0220F331FD4
:101610000A94E2F7822B84BB9F5F961758F388E702
:10162000809373025CDF0895FC01108211821382A3
:1016300012820895FC01778366835583448308955D
:10164000FC0182819381892B19F42FEF3FEF1BC09E
:101650004081842F90E00196248135818217930781
:1016600011F480E002C0842F8F5F80838281938198
:101670000197938382830680F781E02DE40FF11DAB
:101680008081282F30E0C9010895DB0111969C91DB
:1016900011971696ED91FC911797E90FF11D808334
:1016A00011964C911197842F90E0019614962D91EC
:1016B0003C9115978217930711F480E002C0842FA4
:1016C0008F5F11968C93119712968D919C91139721
:1016D000019613969C938E9312970895FB01DC015B
:1016E00005900D920020E1F70895AA1BBB1B51E164
:1016F00007C0AA1FBB1FA617B70710F0A61BB70B82
:10170000881F991F5A95A9F780959095BC01CD0126
:101710000895A1E21A2EAA1BBB1BFD010DC0AA1F32
:10172000BB1FEE1FFF1FA217B307E407F50720F04A
:10173000A21BB30BE40BF50B661F771F881F991FC5
:101740001A9469F760957095809590959B01AC010E
:0A175000BD01CF010895F894FFCF0A
:10175A00040000000300000005000000035AFF8097
:10176A00250000000008A12000000000020003007C
:02177A0001016B
:00000001FF
