:1000000042C03AC25BC05AC059C058C057C056C05F
:1000100055C05FC353C052C051C050C04FC04EC046
:100020004DC04CC04BC00403090420037700770087
:1000300077002E0075006C006C00690068006F008E
:100040006D0065002E006400650018035500530024
:100050004200200041005600520020004C00610088
:10006000620012011001FF000008C016DC0500014B
:100070000102000109021200010100802D090400A3
:1000800000000000000011241FBECFE5D4E0DEBF59
:10009000CDBF10E0A0E6B0E0EAEEF7E002C00590C8
:1000A0000D92A037B107D9F710E0A0E7B0E001C08A
:1000B0001D92A53AB107E1F765D395C3A1CF809111
:1000C0007900883720F48F5F80937900089510922B
:1000D000790070916E0060E041E050E0AFEF70C0D9
:1000E000E62FF0E0EE0FFF1FEE0FFF1FEE59FF4F60
:1000F0009181992309F459C09F3F49F425B3CA015E
:10010000008002C0880F991F0A94E2F73DC0923028
:10011000A1F425B3CA01008002C0880F991F0A9478
:10012000E2F7982F282B25BB82818823D9F585B348
:100130009095982395BBA18342C09130A1F485B3DB
:100140009A01008002C0220F331F0A94E2F7922F17
:100150009095982395BB8281882321F585B3282B20
:1001600025BB11822CC082818823E1F49283838194
:100170009081882369F4A38325B3FA0102C0EE0FAE
:10018000FF1F9A95E2F7CF018095822385BB17C0A8
:10019000138225B3FA0102C0EE0FFF1F9A95E2F712
:1001A000CF010BC0815082830AC025B3CA010080F1
:1001B00002C0880F991F0A94E2F7282B25BB6F5FB6
:1001C000671708F48DCF089560916E0090E041E0CC
:1001D00050E013C084B3E92FF0E0EE0FFF1FEE0FE5
:1001E000FF1FEE59FF4F9A01008002C0220F331FFC
:1001F0000A94E2F7822B84BB9F5F961758F388E737
:10020000809379005CDF089585B7836085BF8BB7E5
:1002100080648BBF08951F93CF93DF9360918A0012
:10022000635067FDA6C080918700CCE0D0E0C81B7A
:10023000D109C257DF4F809186008D3209F083C00B
:10024000683009F090C083EC80937A008AE580934F
:100250006000109270008881807639F0CE016FD2F4
:10026000282F8F3F09F45EC064C09A8110928300EA
:100270008981882321F41092840022E04CC08530CB
:1002800019F490938B0046C08630A9F58B8181309C
:1002900019F482E690E004C0823041F484E790E0F3
:1002A000909389008093880022E121C08330F1F48B
:1002B000992341F486E290E090938900809388002E
:1002C00024E015C0913041F48AE290E090938900D7
:1002D0008093880020E20BC0923041F48AE490E0E1
:1002E000909389008093880028E101C020E080E499
:1002F000809370001EC0883021F421E08DE890E0EA
:100300000CC0893019F490938D0004C08A3011F428
:1003100021E001C020E083E890E090938900809381
:10032000880007C0888187FD2E8180E88093700057
:1003300006C08F81882319F48E81821708F0822FDE
:100340008093610010C08091700087FF0CC0CE01C7
:1003500017D28F3F21F48EE18093600004C0882380
:1003600011F01092610080918A00181614F4109216
:100370008A008091600084FF58C0809161008F3FA7
:1003800009F453C0182F893008F018E0811B8093BE
:10039000610080917A0098E8892780937A00112380
:1003A00091F18091700087FF08C08BE790E0612F8A
:1003B000E5D1182F893098F526C02091880030911A
:1003C000890086FF0DC0ABE7B0E080E090E0F90166
:1003D000E80FF91FE491ED9301961817C1F708C0D3
:1003E000912FD901EBE7F0E08D9181939150E1F7E6
:1003F0001150812F90E01F5F0196820F931F909301
:100400008900809388008BE790E0612F31D0612FC5
:100410006C5F6C3041F08FEF8093610004C08FEF10
:10042000809361006EE16093600094E186B3837015
:1004300031F49150D9F710928B0010928500DF9122
:10044000CF911F910895A82FB92F80E090E041E04F
:1004500050EA60956F5F58F42D9138EF8227979599
:10046000879510F0842795273F5FC8F3F3CF089551
:10047000EADF8D939D930895CF93CFB7CF93C39524
:10048000B09BE9F7B09B09C0B09B07C0B09B05C00B
:10049000B09B03C0B09B01C0A1C0DF93C091870097
:1004A000DD27C257DF4FB09B02C0DF91EBCF2F9308
:1004B0000F931F9306B32FEF00FB20F94F933F9349
:1004C00016B34FEF012700FB21F93BE031C04E7F0F
:1004D000012F16B3216028C0102F4D7F226000002D
:1004E00006B329C04B7F2460012F000016B32BC038
:1004F00016B3477F28602AC04F7E06B320612CC008
:100500004F7D16B320622FC04F7B06B3206432C0EC
:10051000422706B349934FEF0000102710FB20F944
:1005200016B31370C9F1297F91F2012700FB21F95D
:1005300006B3237F89F2315058F1102710FB22F9BE
:1005400016B3277E79F2012700FB23F92F7C81F275
:1005500006B3102710FB24F92F7971F200C016B3EF
:10056000012700FB25F92F7359F200C006B31027AD
:1005700010FB26F9223040F200C016B3012700FB21
:1005800027F9243028F64F77206816B30000F9CFFA
:1005900010E41ABF002717C03B503195C31BD04051
:1005A00010E41ABF0881033CE9F00B34D9F0209124
:1005B00085001981110F1213EDCF093641F10D326B
:1005C00011F0013E39F700938C003F914F911F913C
:1005D0000F912F91DF91CAB7C6FD51CFCF91CFBFF9
:1005E000CF91189520918C00222379F310918A00E5
:1005F000112311F5343012F130938A0020938600D4
:10060000109187003BE0311B3093870017C00091A9
:100610008A0001308CF40AE53091600034FD10C08E
:1006200000936000CAE7D0E00FC02795A8F45150AE
:10063000A9F4220F0000F9CF4AE503C042ED01C042
:10064000432FC4E1D0E032E017B31360C09A17BB68
:1006500008B320E413E05F93012756E008BB279519
:1006600020F4515021F4220FF9CF012756E0000069
:100670003B5A08BBD0F2279528F4515029F4220F99
:100680000000F9CF012756E0279508BB20F4515010
:1006900021F4220FF9CF012756E02991332308BB1B
:1006A00021F60C7F10918B00110FC651D04008BB72
:1006B00011F01093850010E41ABF016017B31C7F7E
:1006C000402F4C7F5F9100C000C008BB17BB48BBE8
:1006D0007CCF1F920F920FB60F9211248F93F89434
:1006E00082E382BF8091A40081508093A400809116
:1006F000A400882309F413BE78948F910F900FBE45
:100700000F901F90189578948093A40082E382BF85
:1007100083B7836083BF89B7816089BF8091A4005C
:100720008823E1F7089578948093A40082E382BF40
:1007300083B7836083BF89B7816089BF0895FC0157
:1007400081818E3F29F488E08093710021E00EC002
:100750008E3159F4F89428E088E190E00FB6F894CF
:10076000A89581BD0FBE21BDFFCF20E081E790E0BD
:100770009093890080938800822F08958FEF0895C9
:100780008FEF08951F93AA9AB89A20E040E757E1A7
:1007900003C0CA010197F1F72150D9F7B89834DDA9
:1007A00078948FEF809363000FDD8AEFACDF8AEFE0
:1007B000AADF8AEFA8DF1092630081E080936700D0
:1007C0001FEF8091A4008823E1F780918B0088239C
:1007D00011F010936B0082B3805882BB81E0A3DFDD
:0A07E0001ADD6DDCEECFF894FFCFB8
:1007EA005AFF040000000300000005000000030097
:00000001FF
