:100000003BC08EC154C053C052C051C050C04FC03D
:100010004EC097C34CC0B4C84AC049C048C047C0CE
:1000200046C045C044C0040309041C0377007700A0
:1000300077002E00660069007300630068006C00A2
:100040002E00640065000E0355005300420061005D
:100050007300700012011001FF000008C016DC05DB
:1000600000010102000109021200010100803C09A7
:10007000040000000000000011241FBECFE5D4E002
:10008000DEBFCDBF10E0A0E6B0E0E8E3F2E102C0E1
:1000900005900D92A837B107D9F711E0A8E7B0E0B5
:1000A00001C01D92A533B107E1F72BD8C3C8A8CF73
:1000B00085B7836085BF8BB780648BBF08951F931E
:1000C000CF93DF9360919F00635067FDA6C080913E
:1000D0009C00CCE0D0E0C81BD109CD55DF4F80910A
:1000E0009B008D3209F083C0683009F090C083EC2A
:1000F00080938F008AE58093600010927800888159
:10010000807639F0CE011AD6282F8F3F09F45EC0D1
:1001100064C09A81109298008981882321F41092FA
:10012000990022E04CC0853019F49093A00046C09D
:100130008630A9F58B81813019F484E590E004C004
:10014000823041F486E690E090939E0080939D007B
:1001500022E121C08330F1F4992341F486E290E05A
:1001600090939E0080939D0024E015C0913041F44F
:100170008AE290E090939E0080939D002CE10BC05A
:10018000923041F486E490E090939E0080939D002D
:100190002EE001C020E080E4809378001EC088300B
:1001A00021F421E082EA90E00CC0893019F49093A8
:1001B000A20004C08A3011F421E001C020E088E9E7
:1001C00090E090939E0080939D0007C0888187FDFA
:1001D0002E8180E88093780006C08F81882319F4EF
:1001E0008E81821708F0822F8093610010C0809169
:1001F000780087FF0CC0CE01F4D48F3F21F48EE14C
:100200008093600004C0882311F0109261008091F7
:100210009F00181614F410929F008091600084FFD4
:1002200058C0809161008F3F09F453C0182F893066
:1002300008F018E0811B8093610080918F0098E89E
:10024000892780938F00112391F18091780087FF97
:1002500008C080E990E0612FDBD3182F893098F532
:1002600026C020919D0030919E0086FF0DC0A0E920
:10027000B0E080E090E0F901E80FF91FE491ED9320
:1002800001961817C1F708C0912FD901E0E9F0E0F5
:100290008D9181939150E1F71150812F90E01F5F74
:1002A0000196820F931F90939E0080939D0080E99A
:1002B00090E0612F31D0612F6C5F6C3041F08FEF97
:1002C0008093610004C08FEF809361006EE16093C2
:1002D000600094E186B3837031F49150D9F71092A5
:1002E000A00010929A00DF91CF911F910895A82F3E
:1002F000B92F80E090E041E050EA60956F5F58F4DC
:100300002D9138EF82279795879510F084279527B0
:100310003F5FC8F3F3CF0895EADF8D939D9308956F
:10032000CF93CFB7CF93C395B09BE9F7B09B09C0EC
:10033000B09B07C0B09B05C0B09B03C0B09B01C081
:10034000A1C0DF93C0919C00DD27CD55DF4FB09B4E
:1003500002C0DF91EBCF2F930F931F9306B32FEFC4
:1003600000FB20F94F933F9316B34FEF012700FB9B
:1003700021F93BE031C04E7F012F16B3216028C028
:10038000102F4D7F2260000006B329C04B7F2460F0
:10039000012F000016B32BC016B3477F28602AC078
:1003A0004F7E06B320612CC04F7D16B320622FC054
:1003B0004F7B06B3206432C0422706B349934FEF08
:1003C0000000102710FB20F916B31370C9F1297F24
:1003D00091F2012700FB21F906B3237F89F2315006
:1003E00058F1102710FB22F916B3277E79F2012766
:1003F00000FB23F92F7C81F206B3102710FB24F9B0
:100400002F7971F200C016B3012700FB25F92F7375
:1004100059F200C006B3102710FB26F9223040F233
:1004200000C016B3012700FB27F9243028F64F77C8
:10043000206816B30000F9CF10E41ABF002717C0D8
:100440003B503195C31BD04010E41ABF0881033CD8
:10045000E9F00B34D9F020919A001981110F121391
:10046000EDCF093641F10D3211F0013E39F700931D
:10047000A1003F914F911F910F912F91DF91CAB72A
:10048000C6FD51CFCF91CFBFCF9118952091A1003C
:10049000222379F310919F00112311F5343012F1CA
:1004A00030939F0020939B0010919C003BE0311BF8
:1004B00030939C0017C000919F0001308CF40AE536
:1004C0003091600034FD10C000936000CFE8D0E0B0
:1004D0000FC02795A8F45150A9F4220F0000F9CFBE
:1004E0004AE503C042ED01C0432FC4E1D0E032E051
:1004F00017B31360C09A17BB08B320E413E05F93EF
:10050000012756E008BB279520F4515021F4220F13
:10051000F9CF012756E000003B5A08BBD0F22795DF
:1005200028F4515029F4220F0000F9CF012756E09A
:10053000279508BB20F4515021F4220FF9CF012751
:1005400056E02991332308BB21F60C7F1091A000BF
:10055000110FC651D04008BB11F010939A0010E45F
:100560001ABF016017B31C7F402F4C7F5F9100C002
:1005700000C008BB17BB48BB7CCFA99883E886B9ED
:1005800081E087B987B1806C87B9369A3699FECFFA
:1005900084B195B1369A3699FECF84B195B106965D
:1005A0006CE070E011D6862F08951F93E6DF8C3142
:1005B00010F011E009C0E1DF853128F0DEDF8B317A
:1005C00010F413E001C012E080917900181751F087
:1005D000E091B900F091BA00309711F0812F0995A0
:1005E000109379001F910895C59A82ED90E0FC0167
:1005F0003197F1F7C5980197F1F70895843091F09C
:10060000853028F4823051F08330D1F409C086302F
:1006100079F0863048F0873099F40FC083E505C043
:1006200082E503C082E505C081E58DB91EB8089555
:1006300081E58DB981E08EB9089580E58DB91EB848
:10064000089587B3837D87BB88B3837D88BB1DB83E
:100650000895282F909162009130C9F480E090E0D5
:1006600042ED50E027FF02C0C39A01C0C398880F33
:10067000B4998F5FC59AFA013197F1F7C598FA01DD
:100680003197F1F79F5F983051F0220FEBCF99230C
:1006900011F481E008958FB9779BFECF8FB1089553
:1006A0000F931F93CF93DF9300E8C2EDD0E019C002
:1006B0008CEACFDF83E5CDDF80E0CBDF182F80E051
:1006C000C8DF133511F480E00FC01DB8C59ACE0104
:1006D0000197F1F7C598CE010197F1F7809162007B
:1006E0008DDF015028F781E0DF91CF911F910F91AD
:1006F00008958CEAAEDF80E8ACDF80E0AADF80E01E
:10070000A8DF089580EFA5DF80E0A3DF80E0A1DF10
:1007100080E09FDF8170089587B38C6287BBC59AA4
:1007200085E029D0C298C5988EEF91E0FC01319701
:10073000F1F7C29A0197F1F7C298809162005EDFEB
:1007400008951F920F920FB60F9211248F93F89471
:1007500082E382BF8091BB0081508093BB00809177
:10076000BB00882309F413BE78948F910F900FBEBD
:100770000F901F90189578948093BB0082E382BFFE
:1007800083B7836083BF89B7816089BF8091BB00D5
:100790008823E1F7089578948093BB0082E382BFB9
:1007A00083B7836083BF89B7816089BF08958091D3
:1007B000BC00883720F48F5F8093BC0008951092AE
:1007C000BC007091760060E041E050E0AFEF70C097
:1007D000E62FF0E0EE0FFF1FEE0FFF1FE659FF4F71
:1007E0009181992309F459C09F3F49F425B3CA0167
:1007F000008002C0880F991F0A94E2F73DC0923032
:10080000A1F425B3CA01008002C0880F991F0A9481
:10081000E2F7982F282B25BB82818823D9F585B351
:100820009095982395BBA18342C09130A1F485B3E4
:100830009A01008002C0220F331F0A94E2F7922F20
:100840009095982395BB8281882321F585B3282B29
:1008500025BB11822CC082818823E1F4928383819D
:100860009081882369F4A38325B3FA0102C0EE0FB7
:10087000FF1F9A95E2F7CF018095822385BB17C0B1
:10088000138225B3FA0102C0EE0FFF1F9A95E2F71B
:10089000CF010BC0815082830AC025B3CA010080FA
:1008A00002C0880F991F0A94E2F7282B25BB6F5FBF
:1008B000671708F48DCF08956091760090E041E0CD
:1008C00050E013C084B3E92FF0E0EE0FFF1FEE0FEE
:1008D000FF1FE659FF4F9A01008002C0220F331F0D
:1008E0000A94E2F7822B84BB9F5F961758F388E740
:1008F0008093BC005CDF0895FC011082118213829A
:1009000012820895FC01778366835583448308959A
:10091000FC0182819381892B19F42FEF3FEF1BC0DB
:100920004081842F90E001962481358182179307BE
:1009300011F480E002C0842F8F5F808382819381D5
:100940000197938382830680F781E02DE40FF11DE8
:100950008081282F30E0C9010895DB0111969C9118
:1009600011971696ED91FC911797E90FF11D808371
:1009700011964C911197842F90E0019614962D9129
:100980003C9115978217930711F480E002C0842FE1
:100990008F5F11968C93119712968D919C9113975E
:1009A000019613969C938E93129708950F931F931D
:1009B0008C0180EA4EDE812F4CDE802F4ADE80E003
:1009C00048DE1F910F910895EF92FF920F931F93AE
:1009D0007B018C01862F8170880F880F880F8062C1
:1009E00038DED801C70129E0B695A7959795879578
:1009F0002A95D1F72EDE16950795F794E7948E2D5C
:100A000028DE80E026DE1F910F91FF90EF90089581
:100A10000F931F93CF93DF939C01062F90917A0041
:100A2000892F8250823018F4E90110E039C09630E5
:100A3000D9F31FEF3BC080917A00823051F460916E
:100A40008600709187008091880090918900BCDFBA
:100A500011C0833031F48091860090918700A6DF29
:100A600009C0863041F481E291E052DF2FEF8F3FE1
:100A70009207C1F088838091860090918700A091B1
:100A80008800B09189000196A11DB11D8093860058
:100A900090938700A0938800B09389001F5F2196F0
:100AA000101748F2083010F410927A00812FDF916D
:100AB000CF911F910F910895FF920F931F93182FBD
:100AC000092FF62E80ECC5DD802FC3DD812FC1DD1F
:100AD0008F2DBFDD8AE04FDE80E01F910F91FF90E8
:100AE0000895CF92DF92EF92FF921F936B017C01EA
:100AF000142F8CE4AEDDD701C60149E0B695A79569
:100B0000979587954A95D1F7A4DDD701C601B6958B
:100B1000A795979587959DDD80E09BDD1F3F19F494
:100B200085E029DE08C081E036DE1EE1C701B6019E
:100B30004BDF8F3F11F080E009C08091BB0088231C
:100B4000A9F781E028DE115089F781E01F91FF901D
:100B5000EF90DF90CF900895CF92DF92EF92FF92C7
:100B60000F931F936B017C01042F122F862F81702E
:100B7000880F880F880F80646CDDD701C60169E09B
:100B8000B695A795979587956A95D1F762DDD701B8
:100B9000C601B695A795979587955BDD802F59DDA2
:100BA0001123B9F00F3719F485E0E5DD12C081E0BB
:100BB000F2DD1EE1C701B60107DF8F3751F48091E6
:100BC000BB008823B9F781E0E6DD115099F781E099
:100BD00001C080E01F910F91FF90EF90DF90CF90C8
:100BE0000895FF920F931F93CF93DF939C01F62EEE
:100BF00080917A00813011F0843021F4E90110E015
:100C000000E08CC08530D1F38730C1F31FEF8FC077
:100C1000813071F580918A0090918B00209186003F
:100C2000309187004091880050918900892B29F4E8
:100C3000CA01B901488121E004C0CA01B901488153
:100C400020E08ADF80918D00815080938D00882381
:100C5000B9F460918600709187008091880090912E
:100C6000890048813EDF80918A0080938D0008C012
:100C7000843081F4809186009091870068811CDF28
:100C800080917B0090917C00019790937C008093F1
:100C90007B000EC0853021F4888190E08CD108C0A3
:100CA000873031F4E02FF0E0ED59FF4F88818083E9
:100CB00080917B0090917C00892BD9F410927A006E
:100CC00080918C0081FF14C080918D0090E0209174
:100CD0008A0030918B008217930751F06091860053
:100CE0007091870080918800909189004881F9DE99
:100CF00011E08091860090918700A0918800B091CA
:100D000089000196A11DB11D8093860090938700F4
:100D1000A0938800B09389000F5F219680917A009C
:100D20000F1508F475CF873011F410927A00812FD7
:100D3000DF91CF911F910F91FF900895CF93DF9393
:100D4000EC0199819E3F11F482E00FC19E3159F46C
:100D5000F89428E088E190E00FB6F894A89581BD5A
:100D60000FBE21BDFFCF913039F410927D00D4DC4D
:100D70008FEF80936B00F6C0923021F462DC10920A
:100D80006B00F0C0933091F48A8163DC80937E0025
:100D90008B815FDC80937F008C815BDC80938000A3
:100DA0008D8157DC8093810024E0E2C0943011F5FE
:100DB00080917D00882391F49B8180E02A8130E03E
:100DC000822B932BAA2797FDA095BA2F809386009C
:100DD00090938700A0938800B09389009F8180E062
:100DE0002E8130E0822B932B90937C0080937B00AC
:100DF00082E0ADC0973011F580917D00882391F499
:100E00009B8180E02A8130E0822B932BAA2797FDDB
:100E1000A095BA2F8093860090938700A0938800B6
:100E2000B09389009F8180E02E8130E0822B932B4C
:100E300090937C0080937B0083E089C0953011F40F
:100E40002FDC93C09630D9F580917D00882391F4F2
:100E50009B8180E02A8130E0822B932BAA2797FD8B
:100E6000A095BA2F8093860090938700A093880066
:100E7000B09389008C819D81292F2F7020938C0045
:100E8000492F50E0407F507074E0440F551F7A9511
:100E9000E1F7480F511D50938B0040938A0020FFCB
:100EA00002C040938D009F8180E02E8130E0822B34
:100EB000932B90937C0080937B0081E048C0983016
:100EC00041F580917D00882391F49B8180E02A8107
:100ED00030E0822B932BAA2797FDA095BA2F809301
:100EE000860090938700A0938800B09389001092A9
:100EF0008B0010928A0010928C009F8180E02E81DE
:100F000030E0822B932B90937C0080937B0084E0D5
:100F10001EC0993081F481E080937D008A819B819D
:100F2000AC81BD818093860090938700A093880058
:100F3000B093890017C08881813211F485E007C021
:100F4000803211F486E003C08F3129F487E080936A
:100F50007A002FEF0DC0933219F48091620005C022
:100F6000943211F020E004C008DB80937E0021E081
:100F70008EE790E090939E0080939D00822FDF91FA
:100F8000CF91089561E271E0E8DC0895B89A20E01D
:100F900040E757E103C0CA010197F1F72150D9F7A3
:100FA000B89886D8789481E291E06DEB70E044E6E1
:100FB00050E0A8DC0895982F8AE08093740022E026
:100FC0002093730080918E00882321F4923661F57E
:100FD00081E018C0813029F49F3631F520938E00CE
:100FE00025C0823021F49F36F9F483E00BC08330B2
:100FF00021F49437C9F484E005C0843031F49D3085
:1010000099F485E080938E0011C0853069F49D309D
:1010100059F4F89428E088E190E00FB6F894A89588
:1010200081BD0FBE21BDFFCF10928E005D9BFECF14
:101030009CB9089510926F0010926B00813021F4DA
:101040008FEF80936F000895833019F482E38093CB
:101050006B0008958130A1F420916200E199FECFE8
:1010600080E090E09FBB8EBB2DBB0FB6F894E29A58
:10107000E19A0FBE8EE180936B0010926F0008958D
:101080008091790010926F0010926B00813021F4F2
:101090008FEF80936F000895833019F482E380937B
:1010A0006B0008958BED97E090932C0180932B01BA
:1010B0001092730008958FEF809373003091640055
:1010C00020E080916300280F311D40E050E084E073
:1010D000220F331F441F551F8A95D1F760E07BE133
:1010E00087EB90E085D0215030401AB830BD29B947
:1010F00088E98AB90895E3D70895E1D756DA57DB2E
:101100000895AA9A909AE199FECF80E090E09FBB63
:101110008EBBE09A8DB3809362008150873018F0C7
:1011200082E0809362008FEF80936B00C5DB8AEFD3
:1011300022DB8AEF20DB8AEF1EDB8BED97E09093BA
:101140002C0180932B0122DF8AE198E09093BA0072
:101150008093B9008AE298E09093300180932F0148
:1011600010926B0082E598E09093320180933101F8
:101170008BE598E090932E0180932D01BEDFFECF8A
:101180001F920F920FB60F9211242F933F934F93FC
:101190005F936F937F938F939F93AF93BF93EF93DF
:1011A000FF938CB1EFDEFF91EF91BF91AF919F91D3
:1011B0008F917F916F915F914F913F912F910F9000
:1011C0000FBE0F901F901895AA1BBB1B51E107C0C3
:1011D000AA1FBB1FA617B70710F0A61BB70B881FC7
:1011E000991F5A95A9F780959095BC01CD01089556
:1011F000A1E21A2EAA1BBB1BFD010DC0AA1FBB1F1B
:10120000EE1FFF1FA217B307E407F50720F0A21B8C
:10121000B30BE40BF50B661F771F881F991F1A94F9
:1012200069F760957095809590959B01AC01BD0123
:08123000CF010895F894FFCFEF
:101238005AFF018025000000000804000000030098
:08124800000005000000030096
:00000001FF
