:100000005BC0A5C274C073C072C071C070C06FC045
:100010006EC0E5C36CC0BCC46AC069C068C067C0BC
:1000200066C065C064C0040309042003770077003C
:1000300077002E0075006C006C00690068006F008E
:100040006D0065002E006400650018035500530024
:100050004200200041005600520020004C00610088
:1000600062001201010102000008C016E105000152
:100070000102000109024300020100802D09040071
:1000800000010202010005240010010424020205FF
:100090002406000105240103010705830308006409
:1000A00009040100020A0000000705010201000026
:1000B000070581020800000011241FBECFE5D4E02F
:1000C000DEBFCDBF10E0A0E6B0E0EAEFFCE002C08A
:1000D00005900D92A238B107D9F711E0A2E8B0E07F
:1000E00001C01D92AD32B107E1F721D404C688CF1B
:1000F00080918500883720F48F5F80938500089574
:100100001092850070916E0060E041E050E0AFEF2A
:1001100070C0E62FF0E0EE0FFF1FEE0FFF1FEE594D
:10012000FF4F9181992309F459C09F3F49F425B3AA
:10013000CA01008002C0880F991F0A94E2F73DC0EF
:100140009230A1F425B3CA01008002C0880F991F24
:100150000A94E2F7982F282B25BB82818823D9F5B2
:1001600085B39095982395BBA18342C09130A1F4AB
:1001700085B39A01008002C0220F331F0A94E2F770
:10018000922F9095982395BB8281882321F585B382
:10019000282B25BB11822CC082818823E1F4928315
:1001A00083819081882369F4A38325B3FA0102C077
:1001B000EE0FFF1F9A95E2F7CF018095822385BB52
:1001C00017C0138225B3FA0102C0EE0FFF1F9A95E4
:1001D000E2F7CF010BC0815082830AC025B3CA0168
:1001E000008002C0880F991F0A94E2F7282B25BBD4
:1001F0006F5F671708F48DCF089560916E0090E0EF
:1002000041E050E013C084B3E92FF0E0EE0FFF1F90
:10021000EE0FFF1FEE59FF4F9A01008002C0220F20
:10022000331F0A94E2F7822B84BB9F5F961758F323
:1002300088E7809385005CDF089585B7836085BF7C
:100240008BB780648BBF8BE4809392008093BD005A
:100250008AE5809391008093BC0008951F93DC0190
:10026000162F8091BC0084FF07C08091BD0098E8E4
:1002700089278093BD0003C08AE58093BC00912F3D
:10028000EEEBF0E08D91819391501916DCF38EEB3B
:1002900090E0612F58D11C5F1093BC001F9108950E
:1002A0001F93DC01162F8091910084FF07C080917D
:1002B000920098E889278093920003C08AE5809392
:1002C0009100912FE3E9F0E08D91819391501916FF
:1002D000DCF383E990E0612F36D11C5F109391002D
:1002E0001F9108951F93CF93DF936091A2006350F5
:1002F00067FDAAC080919F00CCE0D0E0C81BD10967
:10030000CA55DF4F80919E00803118F4CE019ED3F4
:1003100095C08D3209F082C0683009F08FC083EC3F
:10032000809386008AE58093600010928200888125
:10033000807621F0CE0166D3282F5DC09A8110927D
:100340008F008981882321F41092900022E04CC014
:10035000853019F49093A30046C0863071F58B81E7
:10036000813011F0823021F4CE013CD3282F21C0FE
:100370008330F1F4992341F486E290E09093A10058
:100380008093A00024E015C0913041F48AE290E00F
:100390009093A1008093A00020E20BC0923041F422
:1003A0008AE490E09093A1008093A00028E101C02E
:1003B00020E080E4809382001EC0883021F421E098
:1003C00085EA90E013C0893019F49093A5000BC022
:1003D0008A3011F421E008C08B3029F48BE480933B
:1003E00092008093BD0020E08FE890E09093A10000
:1003F0008093A00009C02F3F39F4888187FD2E81AA
:1004000080E88093820006C08F81882319F48E8152
:10041000821708F0822F8093610010C080918200C3
:1004200087FF0CC0CE01CDD38F3F21F48EE18093A6
:10043000600004C0882311F0109261008091A20036
:10044000181614F41092A2008091600084FF58C026
:10045000809161008F3F09F453C0182F893008F054
:1004600018E0811B809361008091860098E88927BD
:1004700080938600112391F18091820087FF08C04C
:1004800087E890E0612FB1D3182F893098F526C006
:100490002091A0003091A10086FF0DC0A7E8B0E038
:1004A00080E090E0F901E80FF91FE491ED930196E7
:1004B0001817C1F708C0912FD901E7E8F0E08D9136
:1004C00081939150E1F71150812F90E01F5F0196C9
:1004D000820F931F9093A1008093A00087E890E083
:1004E000612F31D0612F6C5F6C3041F08FEF8093C2
:1004F000610004C08FEF809361006EE16093600043
:1005000094E186B3837031F49150D9F71092A3002F
:1005100010929D00DF91CF911F910895A82FB92FC0
:1005200080E090E041E050EA60956F5F58F42D91D3
:1005300038EF82279795879510F0842795273F5F9E
:10054000C8F3F3CF0895EADF8D939D930895CF9379
:10055000CFB7CF93C395B09BE9F7B09B09C0B09BD1
:1005600007C0B09B05C0B09B03C0B09B01C0A6C034
:10057000DF93C0919F00DD27CA55DF4FB09B02C0BB
:10058000DF91EBCF2F930F931F9306B32FEF00FB59
:1005900020F94F933F9316B34FEF012700FB21F94A
:1005A0003BE031C04E7F012F16B3216028C0102FD1
:1005B0004D7F2260000006B329C04B7F2460012FCD
:1005C000000016B32BC016B3477F28602AC04F7EA9
:1005D00006B320612CC04F7D16B320622FC04F7B25
:1005E00006B3206432C0422706B349934FEF0000A0
:1005F000102710FB20F916B31370C9F1297F91F26F
:10060000012700FB21F906B3237F89F2315058F10D
:10061000102710FB22F916B3277E79F2012700FB81
:1006200023F92F7C81F206B3102710FB24F92F79D0
:1006300071F200C016B3012700FB25F92F7359F2A0
:1006400000C006B3102710FB26F9223040F200C08C
:1006500016B3012700FB27F9243028F64F772068CE
:1006600016B30000F9CF10E41ABF00271CC03B509E
:100670003195C31BD04010E41ABF0881033C11F12F
:100680000B3401F120919D001981110F1213EDCF50
:100690004A81441F093659F10D3211F0013E29F704
:1006A0004F7009F0042F0093A4003F914F911F91C8
:1006B0000F912F91DF91CAB7C6FD4CCFCF91CFBF1D
:1006C000CF9118952091A400222379F31091A200D4
:1006D0001123C1F53430C2F13093A20020939E0063
:1006E00010919F003BE0311B30939F002DC0009183
:1006F000A20001303CF50AE54F7049F430916000EA
:1007000034FD24C000936000C6E8D0E023C043302D
:1007100049F03091910034FD19C000939100C2E975
:10072000D0E018C03091BC0034FD10C00093BC0074
:10073000CDEBD0E00FC02795A8F45150A9F4220FBB
:100740000000F9CF4AE503C042ED01C0432FC4E1E8
:10075000D0E032E017B31360C09A17BB08B320E4AF
:1007600013E05F93012756E008BB279520F4515012
:1007700021F4220FF9CF012756E000003B5A08BBB5
:10078000D0F2279528F4515029F4220F0000F9CF18
:10079000012756E0279508BB20F4515021F4220F81
:1007A000F9CF012756E02991332308BB21F60C7FAE
:1007B0001091A300110FC651D04008BB11F0109347
:1007C0009D0010E41ABF016017B31C7F402F4C7FBF
:1007D0005F9100C000C008BB17BB48BB66CF1F922B
:1007E0000F920FB60F9211248F93F89482E382BF79
:1007F0008091C80081508093C8008091C8008823F0
:1008000009F413BE78948F910F900FBE0F901F9034
:10081000189578948093C80082E382BF83B7836081
:1008200083BF89B7816089BF8091C8008823E1F7C1
:10083000089578948093C80082E382BF83B7836071
:1008400083BF89B7816089BF0895982F8AE080931C
:100850006C0022E020936B0080918300882321F4B8
:10086000923661F581E00CC0813029F49F3631F574
:100870002093830025C0823031F49F36F9F483E061
:10088000809383001DC0833021F49437B9F484E051
:10089000F7CF843021F49D3089F485E0F1CF8530A5
:1008A00069F49D3059F4F89428E088E190E00FB69F
:1008B000F894A89581BD0FBE21BDFFCF1092830093
:1008C0009CB95D9BFECF0895979A089597980895D7
:1008D00085E294E09093CE008093CD0010926B005F
:1008E00008958FEF80936B003091700020E080912D
:1008F0006F00280F311D40E050E084E0220F331FCD
:10090000441F551F8A95D1F760E07BE187EB90E0AB
:10091000D0D1215030401AB830BD29B988E98AB900
:100920000895A5D0DFDC0895FCDFE2DB0895AA9AE4
:10093000909A8F9A979A8FEF809363005EDC8AEF8C
:1009400068DF8AEF66DF8AEF64DF85E294E09093E8
:10095000CE008093CD0084E694E09093D400809301
:10096000D30086E694E09093CA008093C90009D131
:100970001092630088E694E09093D2008093D100B7
:1009800081E794E09093D0008093CF00CDDFFECF3D
:100990001F920F920FB60F9211242F933F934F93F4
:1009A0005F936F937F938F939F93AF93BF93EF93D7
:1009B000FF938AE08093680081E0809367008CB1A8
:1009C000BBD0FF91EF91BF91AF919F918F917F919C
:1009D0006F915F914F913F912F910F900FBE0F90AC
:1009E0001F901895FC018381813021F422E630E0CC
:1009F00082E103C024E730E083E43093A100209338
:100A0000A0000895FC0180818076803271F491818C
:100A1000892F8052823010F48FEF0895923229F49A
:100A200082E08093840080E0089580E008958091C2
:100A3000270190912801892B19F420E031E004C0AE
:100A400085E291E0E8D09C01C90108951F93CF93FE
:100A5000DF93EC01162F05C0899165E271E000D1AA
:100A600011501123C9F7DF91CF911F910895CF93B2
:100A7000DF9338DC8091910084FF1EC06091DF001D
:100A80007091E0006115710521F480918000882348
:100A900081F08091E3009091E40002DC10928000EC
:100AA0008091DF009091E000089719F481E0809335
:100AB00080008DED90E0A3D0E091D300F091D400C0
:100AC000309709F009958091270190912801892B91
:100AD00059F0C091CD00D091CE00209729F085E249
:100AE00091E099D0FE010995E091C900F091CA000A
:100AF000309709F00995909184009923D1F0809165
:100B0000BC0084FF16C0923021F486E790E068E0D4
:100B100003C08EE790E062E0A1DB80918400815009
:100B200080938400E091D100F091D200309709F0D9
:100B30000995DF91CF9108956DED70E091D001C0DE
:100B400096DF8091DF009091E0000897C9F3089547
:100B5000CF93DF93EC0101C0EFDFFE01219684917A
:100B60008823D1F7DF91CF910895CF93DF93EC01E4
:100B700002C02196E1DF88818823D9F7DF91CF91E8
:100B800008951F9385E291E065EE70E040E450E047
:100B90003CD08DED90E065ED70E048E050E035D060
:100BA000B89A10E003C082E090E033DE1150D9F72C
:100BB000B89880E090E060E073DB3FDB78941F91B1
:100BC00008952BE420939200AFE6B0E0FC0187E0AB
:100BD00001900D928150E1F7E091CF00F091D000AB
:100BE000309709F0099581E00895DC01EFE6F0E027
:100BF00087E001900D928150E1F787E00895FC01B4
:100C000010821182138212820895FC017783668319
:100C1000558344830895FC0182819381892B19F4C3
:100C20002FEF3FEF1BC04081842F90E0019624817D
:100C300035818217930711F480E002C0842F8F5F03
:100C40008083828193810197938382830680F781D9
:100C5000E02DE40FF11D8081282F30E0C9010895B7
:100C6000DB0111969C9111971696ED91FC911797C7
:100C7000E90FF11D808311964C911197842F90E01C
:100C8000019614962D913C9115978217930711F4B4
:100C900080E002C0842F8F5F11968C93119712967B
:100CA0008D919C911397019613969C938E93129716
:100CB0000895A1E21A2EAA1BBB1BFD010DC0AA1F9D
:100CC000BB1FEE1FFF1FA217B307E407F50720F0B5
:100CD000A21BB30BE40BF50B661F771F881F991F30
:100CE0001A9469F760957095809590959B01AC0179
:0A0CF000BD01CF010895F894FFCF75
:100CFA005AFF040000000300000005000000038002
:100D0A00250000000008A1200000000002000300E6
:020D1A000100D6
:00000001FF
